{"contracts/Swap.sol":{"Swap":{"abi":[{"inputs":[{"internalType":"uint256","name":"_protocolFee","type":"uint256"},{"internalType":"uint256","name":"_protocolFeeLight","type":"uint256"},{"internalType":"address","name":"_protocolFeeWallet","type":"address"},{"internalType":"uint256","name":"_rebateScale","type":"uint256"},{"internalType":"uint256","name":"_rebateMax","type":"uint256"},{"internalType":"address","name":"_staking","type":"address"}],"stateMutability":"nonpayable","type":"constructor"},{"anonymous":false,"inputs":[{"indexed":true,"internalType":"address","name":"signer","type":"address"},{"indexed":true,"internalType":"address","name":"signerWallet","type":"address"}],"name":"Authorize","type":"event"},{"anonymous":false,"inputs":[{"indexed":true,"internalType":"uint256","name":"nonce","type":"uint256"},{"indexed":true,"internalType":"address","name":"signerWallet","type":"address"}],"name":"Cancel","type":"event"},{"anonymous":false,"inputs":[{"indexed":true,"internalType":"address","name":"previousOwner","type":"address"},{"indexed":true,"internalType":"address","name":"newOwner","type":"address"}],"name":"OwnershipTransferred","type":"event"},{"anonymous":false,"inputs":[{"indexed":true,"internalType":"address","name":"signer","type":"address"},{"indexed":true,"internalType":"address","name":"signerWallet","type":"address"}],"name":"Revoke","type":"event"},{"anonymous":false,"inputs":[{"indexed":false,"internalType":"uint256","name":"protocolFee","type":"uint256"}],"name":"SetProtocolFee","type":"event"},{"anonymous":false,"inputs":[{"indexed":false,"internalType":"uint256","name":"protocolFeeLight","type":"uint256"}],"name":"SetProtocolFeeLight","type":"event"},{"anonymous":false,"inputs":[{"indexed":true,"internalType":"address","name":"feeWallet","type":"address"}],"name":"SetProtocolFeeWallet","type":"event"},{"anonymous":false,"inputs":[{"indexed":false,"internalType":"uint256","name":"rebateMax","type":"uint256"}],"name":"SetRebateMax","type":"event"},{"anonymous":false,"inputs":[{"indexed":false,"internalType":"uint256","name":"rebateScale","type":"uint256"}],"name":"SetRebateScale","type":"event"},{"anonymous":false,"inputs":[{"indexed":true,"internalType":"address","name":"staking","type":"address"}],"name":"SetStaking","type":"event"},{"anonymous":false,"inputs":[{"indexed":true,"internalType":"uint256","name":"nonce","type":"uint256"},{"indexed":false,"internalType":"uint256","name":"timestamp","type":"uint256"},{"indexed":true,"internalType":"address","name":"signerWallet","type":"address"},{"indexed":false,"internalType":"address","name":"signerToken","type":"address"},{"indexed":false,"internalType":"uint256","name":"signerAmount","type":"uint256"},{"indexed":false,"internalType":"uint256","name":"protocolFee","type":"uint256"},{"indexed":true,"internalType":"address","name":"senderWallet","type":"address"},{"indexed":false,"internalType":"address","name":"senderToken","type":"address"},{"indexed":false,"internalType":"uint256","name":"senderAmount","type":"uint256"}],"name":"Swap","type":"event"},{"inputs":[],"name":"DOMAIN_CHAIN_ID","outputs":[{"internalType":"uint256","name":"","type":"uint256"}],"stateMutability":"view","type":"function"},{"inputs":[],"name":"DOMAIN_NAME","outputs":[{"internalType":"bytes32","name":"","type":"bytes32"}],"stateMutability":"view","type":"function"},{"inputs":[],"name":"DOMAIN_SEPARATOR","outputs":[{"internalType":"bytes32","name":"","type":"bytes32"}],"stateMutability":"view","type":"function"},{"inputs":[],"name":"DOMAIN_TYPEHASH","outputs":[{"internalType":"bytes32","name":"","type":"bytes32"}],"stateMutability":"view","type":"function"},{"inputs":[],"name":"DOMAIN_VERSION","outputs":[{"internalType":"bytes32","name":"","type":"bytes32"}],"stateMutability":"view","type":"function"},{"inputs":[],"name":"FEE_DIVISOR","outputs":[{"internalType":"uint256","name":"","type":"uint256"}],"stateMutability":"view","type":"function"},{"inputs":[],"name":"ORDER_TYPEHASH","outputs":[{"internalType":"bytes32","name":"","type":"bytes32"}],"stateMutability":"view","type":"function"},{"inputs":[{"internalType":"address","name":"signer","type":"address"}],"name":"authorize","outputs":[],"stateMutability":"nonpayable","type":"function"},{"inputs":[{"internalType":"address","name":"","type":"address"}],"name":"authorized","outputs":[{"internalType":"address","name":"","type":"address"}],"stateMutability":"view","type":"function"},{"inputs":[{"internalType":"uint256","name":"stakingBalance","type":"uint256"},{"internalType":"uint256","name":"feeAmount","type":"uint256"}],"name":"calculateDiscount","outputs":[{"internalType":"uint256","name":"","type":"uint256"}],"stateMutability":"view","type":"function"},{"inputs":[{"internalType":"address","name":"wallet","type":"address"},{"internalType":"uint256","name":"amount","type":"uint256"}],"name":"calculateProtocolFee","outputs":[{"internalType":"uint256","name":"","type":"uint256"}],"stateMutability":"view","type":"function"},{"inputs":[{"internalType":"uint256[]","name":"nonces","type":"uint256[]"}],"name":"cancel","outputs":[],"stateMutability":"nonpayable","type":"function"},{"inputs":[{"internalType":"address","name":"senderWallet","type":"address"},{"internalType":"uint256","name":"nonce","type":"uint256"},{"internalType":"uint256","name":"expiry","type":"uint256"},{"internalType":"address","name":"signerWallet","type":"address"},{"internalType":"address","name":"signerToken","type":"address"},{"internalType":"uint256","name":"signerAmount","type":"uint256"},{"internalType":"address","name":"senderToken","type":"address"},{"internalType":"uint256","name":"senderAmount","type":"uint256"},{"internalType":"uint8","name":"v","type":"uint8"},{"internalType":"bytes32","name":"r","type":"bytes32"},{"internalType":"bytes32","name":"s","type":"bytes32"}],"name":"check","outputs":[{"internalType":"uint256","name":"","type":"uint256"},{"internalType":"bytes32[]","name":"","type":"bytes32[]"}],"stateMutability":"view","type":"function"},{"inputs":[],"name":"getChainId","outputs":[{"internalType":"uint256","name":"id","type":"uint256"}],"stateMutability":"view","type":"function"},{"inputs":[{"internalType":"address","name":"signer","type":"address"},{"internalType":"uint256","name":"nonce","type":"uint256"}],"name":"nonceUsed","outputs":[{"internalType":"bool","name":"","type":"bool"}],"stateMutability":"view","type":"function"},{"inputs":[],"name":"owner","outputs":[{"internalType":"address","name":"","type":"address"}],"stateMutability":"view","type":"function"},{"inputs":[],"name":"protocolFee","outputs":[{"internalType":"uint256","name":"","type":"uint256"}],"stateMutability":"view","type":"function"},{"inputs":[],"name":"protocolFeeLight","outputs":[{"internalType":"uint256","name":"","type":"uint256"}],"stateMutability":"view","type":"function"},{"inputs":[],"name":"protocolFeeWallet","outputs":[{"internalType":"address","name":"","type":"address"}],"stateMutability":"view","type":"function"},{"inputs":[],"name":"rebateMax","outputs":[{"internalType":"uint256","name":"","type":"uint256"}],"stateMutability":"view","type":"function"},{"inputs":[],"name":"rebateScale","outputs":[{"internalType":"uint256","name":"","type":"uint256"}],"stateMutability":"view","type":"function"},{"inputs":[],"name":"renounceOwnership","outputs":[],"stateMutability":"nonpayable","type":"function"},{"inputs":[],"name":"revoke","outputs":[],"stateMutability":"nonpayable","type":"function"},{"inputs":[{"internalType":"uint256","name":"_protocolFee","type":"uint256"}],"name":"setProtocolFee","outputs":[],"stateMutability":"nonpayable","type":"function"},{"inputs":[{"internalType":"uint256","name":"_protocolFeeLight","type":"uint256"}],"name":"setProtocolFeeLight","outputs":[],"stateMutability":"nonpayable","type":"function"},{"inputs":[{"internalType":"address","name":"_protocolFeeWallet","type":"address"}],"name":"setProtocolFeeWallet","outputs":[],"stateMutability":"nonpayable","type":"function"},{"inputs":[{"internalType":"uint256","name":"_rebateMax","type":"uint256"}],"name":"setRebateMax","outputs":[],"stateMutability":"nonpayable","type":"function"},{"inputs":[{"internalType":"uint256","name":"_rebateScale","type":"uint256"}],"name":"setRebateScale","outputs":[],"stateMutability":"nonpayable","type":"function"},{"inputs":[{"internalType":"address","name":"newstaking","type":"address"}],"name":"setStaking","outputs":[],"stateMutability":"nonpayable","type":"function"},{"inputs":[],"name":"staking","outputs":[{"internalType":"address","name":"","type":"address"}],"stateMutability":"view","type":"function"},{"inputs":[{"internalType":"address","name":"recipient","type":"address"},{"internalType":"uint256","name":"nonce","type":"uint256"},{"internalType":"uint256","name":"expiry","type":"uint256"},{"internalType":"address","name":"signerWallet","type":"address"},{"internalType":"address","name":"signerToken","type":"address"},{"internalType":"uint256","name":"signerAmount","type":"uint256"},{"internalType":"address","name":"senderToken","type":"address"},{"internalType":"uint256","name":"senderAmount","type":"uint256"},{"internalType":"uint8","name":"v","type":"uint8"},{"internalType":"bytes32","name":"r","type":"bytes32"},{"internalType":"bytes32","name":"s","type":"bytes32"}],"name":"swap","outputs":[],"stateMutability":"nonpayable","type":"function"},{"inputs":[{"internalType":"address","name":"recipient","type":"address"},{"internalType":"uint256","name":"nonce","type":"uint256"},{"internalType":"uint256","name":"expiry","type":"uint256"},{"internalType":"address","name":"signerWallet","type":"address"},{"internalType":"address","name":"signerToken","type":"address"},{"internalType":"uint256","name":"signerAmount","type":"uint256"},{"internalType":"address","name":"senderToken","type":"address"},{"internalType":"uint256","name":"senderAmount","type":"uint256"},{"internalType":"uint8","name":"v","type":"uint8"},{"internalType":"bytes32","name":"r","type":"bytes32"},{"internalType":"bytes32","name":"s","type":"bytes32"}],"name":"swapAnySender","outputs":[],"stateMutability":"nonpayable","type":"function"},{"inputs":[{"internalType":"uint256","name":"nonce","type":"uint256"},{"internalType":"uint256","name":"expiry","type":"uint256"},{"internalType":"address","name":"signerWallet","type":"address"},{"internalType":"address","name":"signerToken","type":"address"},{"internalType":"uint256","name":"signerAmount","type":"uint256"},{"internalType":"address","name":"senderToken","type":"address"},{"internalType":"uint256","name":"senderAmount","type":"uint256"},{"internalType":"uint8","name":"v","type":"uint8"},{"internalType":"bytes32","name":"r","type":"bytes32"},{"internalType":"bytes32","name":"s","type":"bytes32"}],"name":"swapLight","outputs":[],"stateMutability":"nonpayable","type":"function"},{"inputs":[{"internalType":"address","name":"newOwner","type":"address"}],"name":"transferOwnership","outputs":[],"stateMutability":"nonpayable","type":"function"}],"evm":{"bytecode":{"linkReferences":{},"object":"60c06040523480156200001157600080fd5b506040516200322238038062003222833981016040819052620000349162000347565b6200003f33620002da565b6127108610620000845760405162461bcd60e51b815260206004820152600b60248201526a494e56414c49445f46454560a81b60448201526064015b60405180910390fd5b6127108510620000c55760405162461bcd60e51b815260206004820152600b60248201526a494e56414c49445f46454560a81b60448201526064016200007b565b6001600160a01b038416620001125760405162461bcd60e51b81526020600482015260126024820152711253959053125117d1915157d5d05313115560721b60448201526064016200007b565b604d831115620001565760405162461bcd60e51b815260206004820152600e60248201526d0a68682988abea89e9ebe90928e960931b60448201526064016200007b565b6064821115620001985760405162461bcd60e51b815260206004820152600c60248201526b09a82b0bea89e9ebe90928e960a31b60448201526064016200007b565b6001600160a01b038116620001e25760405162461bcd60e51b815260206004820152600f60248201526e494e56414c49445f5354414b494e4760881b60448201526064016200007b565b6000466080818152604080517f8b73c3c69bb8fe3d512ecc4cf759cc79239f7b179b0ffacaa9a75d522b39400f60208201527f497a7733c30c446bed91d579fce5ede8c3e0fbcdbe90a491d0a07e91d5b88b71918101919091527f2a80e1ef1d7842f27f2e6be0972bb708b9a135c38860dbe73c27c3486c34f4de60608201529081018290523060a082015290915060c00160408051601f19818403018152919052805160209091012060a05250600395909555600493909355600580546001600160a01b039384166001600160a01b03199182161790915560069190915560079290925560088054919093169116179055620003a4565b600080546001600160a01b038381166001600160a01b0319831681178455604051919092169283917f8be0079c531659141344cd1fd0a4f28419497f9722a3daafe3b4186f6b6457e09190a35050565b80516001600160a01b03811681146200034257600080fd5b919050565b60008060008060008060c087890312156200036157600080fd5b86519550602087015194506200037a604088016200032a565b935060608701519250608087015191506200039860a088016200032a565b90509295509295509295565b60805160a051612e3c620003e6600039600081816102a80152818161090101526124e50152600081816102e2015281816107400152611e680152612e3c6000f3fe608060405234801561001057600080fd5b50600436106102265760003560e01c80638ff390991161012a578063b9cb01b0116100bd578063db985cd91161008c578063f2fde38b11610071578063f2fde38b14610531578063f4ebc69914610544578063f973a2091461054d57600080fd5b8063db985cd914610515578063e95b771c1461051e57600080fd5b8063b9cb01b0146104ae578063bfd4e557146104cf578063cbf7c6c3146104e2578063d31eaa831461050257600080fd5b8063b0e21e8a116100f9578063b0e21e8a14610454578063b6549f751461045d578063b6a5d7de14610465578063b91816111461047857600080fd5b80638ff39099146103fe57806398956069146104115780639e93ad8e14610424578063acb8cc491461042d57600080fd5b80634cf088d9116101bd578063770fde121161018c578063796f077b11610171578063796f077b146103a65780637ce78525146103cd5780638da5cb5b146103e057600080fd5b8063770fde121461038a578063787dce3d1461039357600080fd5b80634cf088d9146103175780634d2af2b21461035c57806352c5f1f51461036f578063715018a61461038257600080fd5b80633644e515116101f95780633644e515146102a35780633eb1af24146102ca578063416f281d146102dd57806346e4480d1461030457600080fd5b80631647795e1461022b57806320606b70146102535780632e340823146102885780633408e4701461029d575b600080fd5b61023e61023936600461285e565b610574565b60405190151581526020015b60405180910390f35b61027a7f8b73c3c69bb8fe3d512ecc4cf759cc79239f7b179b0ffacaa9a75d522b39400f81565b60405190815260200161024a565b61029b610296366004612888565b6105d6565b005b4661027a565b61027a7f000000000000000000000000000000000000000000000000000000000000000081565b61029b6102d836600461290e565b610653565b61027a7f000000000000000000000000000000000000000000000000000000000000000081565b61029b6103123660046129b0565b61073d565b6008546103379073ffffffffffffffffffffffffffffffffffffffff1681565b60405173ffffffffffffffffffffffffffffffffffffffff909116815260200161024a565b61027a61036a366004612a40565b610ca6565b61027a61037d36600461285e565b610cfd565b61029b610de0565b61027a60075481565b61029b6103a1366004612a62565b610df4565b61027a7f497a7733c30c446bed91d579fce5ede8c3e0fbcdbe90a491d0a07e91d5b88b7181565b61029b6103db366004612a7b565b610ea3565b60005473ffffffffffffffffffffffffffffffffffffffff16610337565b61029b61040c366004612a7b565b610f97565b61029b61041f36600461290e565b61108b565b61027a61271081565b61027a7f2a80e1ef1d7842f27f2e6be0972bb708b9a135c38860dbe73c27c3486c34f4de81565b61027a60035481565b61029b61109e565b61029b610473366004612a7b565b61111b565b610337610486366004612a7b565b60026020526000908152604090205473ffffffffffffffffffffffffffffffffffffffff1681565b6104c16104bc36600461290e565b611213565b60405161024a929190612a96565b61029b6104dd366004612a62565b611b0b565b6005546103379073ffffffffffffffffffffffffffffffffffffffff1681565b61029b610510366004612a62565b611bb3565b61027a60065481565b61029b61052c366004612a62565b611c5b565b61029b61053f366004612a7b565b611d03565b61027a60045481565b61027a7fff91e73ea790c2642a1cb1bf6c98e5211562aae911fd8eace405557cd7dc27a581565b60008061058361010084612b42565b9050600061059361010085612b56565b73ffffffffffffffffffffffffffffffffffffffff8616600090815260016020818152604080842096845295905293902054901c82169091149150505b92915050565b60005b8181101561064e5760008383838181106105f5576105f5612b6a565b9050602002013590506106083382611dba565b1561063b57604051339082907f8dd3c361eb2366ff27c2db0eb07b9261f1d052570742ab8c9a0c326f37aa576d90600090a35b508061064681612b99565b9150506105d9565b505050565b6106678a8a8a8a8a60008b8b8b8b8b611e65565b61068973ffffffffffffffffffffffffffffffffffffffff8616338a87612200565b6106ab73ffffffffffffffffffffffffffffffffffffffff8816898d89612200565b6106b687898861229b565b6003546040805142815273ffffffffffffffffffffffffffffffffffffffff8a811660208301529181018990526060810192909252868116608083015260a082018690523391908a16908c907f06dfeb25e76d44e08965b639a9d9307df8e1c3dbe2a6364194895e9c3992f0339060c0015b60405180910390a45050505050505050505050565b467f0000000000000000000000000000000000000000000000000000000000000000146107cb576040517f08c379a000000000000000000000000000000000000000000000000000000000815260206004820152601060248201527f434841494e5f49445f4348414e4745440000000000000000000000000000000060448201526064015b60405180910390fd5b428911610834576040517f08c379a000000000000000000000000000000000000000000000000000000000815260206004820152600d60248201527f4558504952595f5041535345440000000000000000000000000000000000000060448201526064016107c2565b600454604080517fff91e73ea790c2642a1cb1bf6c98e5211562aae911fd8eace405557cd7dc27a56020808301919091528183018e9052606082018d905273ffffffffffffffffffffffffffffffffffffffff8c811660808401528b811660a084015260c083018b905260e083019490945233610100830152928816610120820152610140808201889052825180830390910181526101608201909252815191909201207f19010000000000000000000000000000000000000000000000000000000000006101808301527f00000000000000000000000000000000000000000000000000000000000000006101828301526101a28201526000906001906101c201604080517fffffffffffffffffffffffffffffffffffffffffffffffffffffffffffffffe08184030181528282528051602091820120600084529083018083525260ff871690820152606081018590526080810184905260a0016020604051602081039080840390855afa1580156109b2573d6000803e3d6000fd5b50506040517fffffffffffffffffffffffffffffffffffffffffffffffffffffffffffffffe0015191505073ffffffffffffffffffffffffffffffffffffffff8116610a5a576040517f08c379a000000000000000000000000000000000000000000000000000000000815260206004820152601160248201527f5349474e41545552455f494e56414c494400000000000000000000000000000060448201526064016107c2565b610a64818c611dba565b610aca576040517f08c379a000000000000000000000000000000000000000000000000000000000815260206004820152601260248201527f4e4f4e43455f414c52454144595f55534544000000000000000000000000000060448201526064016107c2565b8073ffffffffffffffffffffffffffffffffffffffff168973ffffffffffffffffffffffffffffffffffffffff1614610b905773ffffffffffffffffffffffffffffffffffffffff898116600090815260026020526040902054811690821614610b90576040517f08c379a000000000000000000000000000000000000000000000000000000000815260206004820152600c60248201527f554e415554484f52495a4544000000000000000000000000000000000000000060448201526064016107c2565b610bb273ffffffffffffffffffffffffffffffffffffffff8716338b88612200565b610bd473ffffffffffffffffffffffffffffffffffffffff89168a338a612200565b600554600454610c30918b9173ffffffffffffffffffffffffffffffffffffffff9091169061271090610c07908c612bd1565b610c119190612b42565b73ffffffffffffffffffffffffffffffffffffffff8c16929190612200565b6004546040805142815273ffffffffffffffffffffffffffffffffffffffff8b811660208301529181018a90526060810192909252878116608083015260a082018790523391908b16908d907f06dfeb25e76d44e08965b639a9d9307df8e1c3dbe2a6364194895e9c3992f0339060c001610728565b60008083600654600a610cb99190612d08565b610cc39190612d14565b90506064818486600754610cd79190612bd1565b610ce19190612bd1565b610ceb9190612b42565b610cf59190612b42565b949350505050565b60008061271060035484610d119190612bd1565b610d1b9190612b42565b90508015610dd9576008546040517f70a0823100000000000000000000000000000000000000000000000000000000815273ffffffffffffffffffffffffffffffffffffffff8681166004830152600092610dc4929116906370a08231906024015b602060405180830381865afa158015610d9a573d6000803e3d6000fd5b505050506040513d601f19601f82011682018060405250810190610dbe9190612d27565b83610ca6565b9050610dd08183612d40565b925050506105d0565b9392505050565b610de86123c4565b610df26000612445565b565b610dfc6123c4565b6127108110610e67576040517f08c379a000000000000000000000000000000000000000000000000000000000815260206004820152600b60248201527f494e56414c49445f46454500000000000000000000000000000000000000000060448201526064016107c2565b60038190556040518181527fdc0410a296e1e33943a772020d333d5f99319d7fcad932a484c53889f7aaa2b1906020015b60405180910390a150565b610eab6123c4565b73ffffffffffffffffffffffffffffffffffffffff8116610f28576040517f08c379a000000000000000000000000000000000000000000000000000000000815260206004820152601260248201527f494e56414c49445f4645455f57414c4c4554000000000000000000000000000060448201526064016107c2565b600580547fffffffffffffffffffffffff00000000000000000000000000000000000000001673ffffffffffffffffffffffffffffffffffffffff83169081179091556040517f8b2a800ce9e2e7ccdf4741ae0e41b1f16983192291080ae3b78ac4296ddf598a90600090a250565b610f9f6123c4565b73ffffffffffffffffffffffffffffffffffffffff811661101c576040517f08c379a000000000000000000000000000000000000000000000000000000000815260206004820152600f60248201527f494e56414c49445f5354414b494e47000000000000000000000000000000000060448201526064016107c2565b600880547fffffffffffffffffffffffff00000000000000000000000000000000000000001673ffffffffffffffffffffffffffffffffffffffff83169081179091556040517f58fd5d9c33114e6edf8ea5d30956f8d1a4ab112b004f99928b4bcf1b87d6666290600090a250565b6106678a8a8a8a8a338b8b8b8b8b611e65565b3360008181526002602052604080822080547fffffffffffffffffffffffff00000000000000000000000000000000000000008116909155905173ffffffffffffffffffffffffffffffffffffffff909116929183917fd7426110292f20fe59e73ccf52124e0f5440a756507c91c7b0a6c50e1eb1a23a9190a350565b73ffffffffffffffffffffffffffffffffffffffff8116611198576040517f08c379a000000000000000000000000000000000000000000000000000000000815260206004820152600e60248201527f5349474e45525f494e56414c494400000000000000000000000000000000000060448201526064016107c2565b3360008181526002602052604080822080547fffffffffffffffffffffffff00000000000000000000000000000000000000001673ffffffffffffffffffffffffffffffffffffffff8616908117909155905190917f30468de898bda644e26bab66e5a2241a3aa6aaf527257f5ca54e0f65204ba14a91a350565b60408051600680825260e0820190925260009160609183916020820160c080368337019050506040805161016081018252600080825260208201819052918101829052606081018290526080810182905260a0810182905260c0810182905260e081018290526101008101829052610120810182905261014081019190915290915060008e8260000181815250508d8260200181815250508c826040019073ffffffffffffffffffffffffffffffffffffffff16908173ffffffffffffffffffffffffffffffffffffffff16815250508b826060019073ffffffffffffffffffffffffffffffffffffffff16908173ffffffffffffffffffffffffffffffffffffffff16815250508a826080018181525050898260c0019073ffffffffffffffffffffffffffffffffffffffff16908173ffffffffffffffffffffffffffffffffffffffff1681525050888260e00181815250508782610100019060ff16908160ff1681525050868261012001818152505085826101400181815250508f8260a0019073ffffffffffffffffffffffffffffffffffffffff16908173ffffffffffffffffffffffffffffffffffffffff168152505060006114a1836000015184602001518560400151866060015187608001518860a001518960c001518a60e00151600354604080517fff91e73ea790c2642a1cb1bf6c98e5211562aae911fd8eace405557cd7dc27a56020808301919091528183019b909b52606081019990995273ffffffffffffffffffffffffffffffffffffffff97881660808a015295871660a089015260c088019490945260e08701939093529084166101008601529092166101208401526101408084019290925280518084039092018252610160909201909152805191012090565b905060006114c0828561010001518661012001518761014001516124ba565b905073ffffffffffffffffffffffffffffffffffffffff8116611529577f5349474e41545552455f494e56414c494400000000000000000000000000000085848151811061151057611510612b6a565b60209081029190910101528261152581612b99565b9350505b4284602001511015611581577f4558504952595f5041535345440000000000000000000000000000000000000085848151811061156857611568612b6a565b60209081029190910101528261157d81612b99565b9350505b8073ffffffffffffffffffffffffffffffffffffffff16846040015173ffffffffffffffffffffffffffffffffffffffff16141580156115f1575060408085015173ffffffffffffffffffffffffffffffffffffffff908116600090815260026020529190912054811690821614155b15611646577f554e415554484f52495a4544000000000000000000000000000000000000000085848151811061162957611629612b6a565b60209081029190910101528261163e81612b99565b9350506116a5565b611654818560000151610574565b156116a5577f4e4f4e43455f414c52454144595f55534544000000000000000000000000000085848151811061168c5761168c612b6a565b6020908102919091010152826116a181612b99565b9350505b60a084015173ffffffffffffffffffffffffffffffffffffffff16156118bf5760c084015160a08501516040517f70a0823100000000000000000000000000000000000000000000000000000000815273ffffffffffffffffffffffffffffffffffffffff918216600482015260009291909116906370a0823190602401602060405180830381865afa158015611740573d6000803e3d6000fd5b505050506040513d601f19601f820116820180604052508101906117649190612d27565b60c086015160a08701516040517fdd62ed3e00000000000000000000000000000000000000000000000000000000815273ffffffffffffffffffffffffffffffffffffffff918216600482015230602482015292935060009291169063dd62ed3e90604401602060405180830381865afa1580156117e6573d6000803e3d6000fd5b505050506040513d601f19601f8201168201806040525081019061180a9190612d27565b90508560e00151811015611864577f53454e4445525f414c4c4f57414e43455f4c4f5700000000000000000000000087868151811061184b5761184b612b6a565b60209081029190910101528461186081612b99565b9550505b8560e001518210156118bc577f53454e4445525f42414c414e43455f4c4f5700000000000000000000000000008786815181106118a3576118a3612b6a565b6020908102919091010152846118b881612b99565b9550505b50505b606084015160408086015190517f70a0823100000000000000000000000000000000000000000000000000000000815273ffffffffffffffffffffffffffffffffffffffff918216600482015260009291909116906370a0823190602401602060405180830381865afa15801561193a573d6000803e3d6000fd5b505050506040513d601f19601f8201168201806040525081019061195e9190612d27565b606086015160408088015190517fdd62ed3e00000000000000000000000000000000000000000000000000000000815273ffffffffffffffffffffffffffffffffffffffff918216600482015230602482015292935060009291169063dd62ed3e90604401602060405180830381865afa1580156119e0573d6000803e3d6000fd5b505050506040513d601f19601f82011682018060405250810190611a049190612d27565b905060006127106003548860800151611a1d9190612bd1565b611a279190612b42565b9050808760800151611a399190612d14565b821015611a8c577f5349474e45525f414c4c4f57414e43455f4c4f57000000000000000000000000888781518110611a7357611a73612b6a565b602090810291909101015285611a8881612b99565b9650505b808760800151611a9c9190612d14565b831015611aef577f5349474e45525f42414c414e43455f4c4f570000000000000000000000000000888781518110611ad657611ad6612b6a565b602090810291909101015285611aeb81612b99565b9650505b5093975094955050505050509b509b9950505050505050505050565b611b136123c4565b6127108110611b7e576040517f08c379a000000000000000000000000000000000000000000000000000000000815260206004820152601160248201527f494e56414c49445f4645455f4c4947485400000000000000000000000000000060448201526064016107c2565b60048190556040518181527f312cc1a9b7287129a22395b9572a3c9ed09ce456f02b519efb34e12bb429eed090602001610e98565b611bbb6123c4565b6064811115611c26576040517f08c379a000000000000000000000000000000000000000000000000000000000815260206004820152600c60248201527f4d41585f544f4f5f48494748000000000000000000000000000000000000000060448201526064016107c2565b60078190556040518181527f8f4773d92ea1b8ff6e9ea92363a816f089d2042092c31bb82607707d6699b0b390602001610e98565b611c636123c4565b604d811115611cce576040517f08c379a000000000000000000000000000000000000000000000000000000000815260206004820152600e60248201527f5343414c455f544f4f5f4849474800000000000000000000000000000000000060448201526064016107c2565b60068190556040518181527f01d5d03fb73185766e93e2c8300b4fc67782909a607c987c6f76f35c84e2a32590602001610e98565b611d0b6123c4565b73ffffffffffffffffffffffffffffffffffffffff8116611dae576040517f08c379a000000000000000000000000000000000000000000000000000000000815260206004820152602660248201527f4f776e61626c653a206e6577206f776e657220697320746865207a65726f206160448201527f646472657373000000000000000000000000000000000000000000000000000060648201526084016107c2565b611db781612445565b50565b600080611dc961010084612b42565b90506000611dd961010085612b56565b73ffffffffffffffffffffffffffffffffffffffff861660009081526001602081815260408084208785529091529091205491925081831c81169003611e2557600093505050506105d0565b73ffffffffffffffffffffffffffffffffffffffff861660009081526001602081815260408084209684529590529390209183901b179055905092915050565b467f000000000000000000000000000000000000000000000000000000000000000014611eee576040517f08c379a000000000000000000000000000000000000000000000000000000000815260206004820152601060248201527f434841494e5f49445f4348414e4745440000000000000000000000000000000060448201526064016107c2565b428a11611f57576040517f08c379a000000000000000000000000000000000000000000000000000000000815260206004820152600d60248201527f4558504952595f5041535345440000000000000000000000000000000000000060448201526064016107c2565b600354604080517fff91e73ea790c2642a1cb1bf6c98e5211562aae911fd8eace405557cd7dc27a56020808301919091528183018f9052606082018e905273ffffffffffffffffffffffffffffffffffffffff808e166080840152808d1660a084015260c083018c905260e0830194909452838a16610100830152928816610120820152610140808201889052825180830390910181526101609091019091528051910120600061200a828686866124ba565b905073ffffffffffffffffffffffffffffffffffffffff8116612089576040517f08c379a000000000000000000000000000000000000000000000000000000000815260206004820152601160248201527f5349474e41545552455f494e56414c494400000000000000000000000000000060448201526064016107c2565b612093818e611dba565b6120f9576040517f08c379a000000000000000000000000000000000000000000000000000000000815260206004820152601260248201527f4e4f4e43455f414c52454144595f55534544000000000000000000000000000060448201526064016107c2565b8073ffffffffffffffffffffffffffffffffffffffff168b73ffffffffffffffffffffffffffffffffffffffff16146121f15773ffffffffffffffffffffffffffffffffffffffff8b8116600090815260026020526040902054161580159061218b575073ffffffffffffffffffffffffffffffffffffffff8b81166000908152600260205260409020548116908216145b6121f1576040517f08c379a000000000000000000000000000000000000000000000000000000000815260206004820152600c60248201527f554e415554484f52495a4544000000000000000000000000000000000000000060448201526064016107c2565b50505050505050505050505050565b6040805173ffffffffffffffffffffffffffffffffffffffff85811660248301528416604482015260648082018490528251808303909101815260849091019091526020810180517bffffffffffffffffffffffffffffffffffffffffffffffffffffffff167f23b872dd000000000000000000000000000000000000000000000000000000001790526122959085906125c7565b50505050565b6000612710600354836122ae9190612bd1565b6122b89190612b42565b90508015612295576008546040517f70a0823100000000000000000000000000000000000000000000000000000000815233600482015260009161231d9173ffffffffffffffffffffffffffffffffffffffff909116906370a0823190602401610d7d565b905080156123945761234773ffffffffffffffffffffffffffffffffffffffff8616853384612200565b60055461238f90859073ffffffffffffffffffffffffffffffffffffffff166123708486612d40565b73ffffffffffffffffffffffffffffffffffffffff8916929190612200565b6123bd565b6005546123bd9073ffffffffffffffffffffffffffffffffffffffff8781169187911685612200565b5050505050565b60005473ffffffffffffffffffffffffffffffffffffffff163314610df2576040517f08c379a000000000000000000000000000000000000000000000000000000000815260206004820181905260248201527f4f776e61626c653a2063616c6c6572206973206e6f7420746865206f776e657260448201526064016107c2565b6000805473ffffffffffffffffffffffffffffffffffffffff8381167fffffffffffffffffffffffff0000000000000000000000000000000000000000831681178455604051919092169283917f8be0079c531659141344cd1fd0a4f28419497f9722a3daafe3b4186f6b6457e09190a35050565b6040517f190100000000000000000000000000000000000000000000000000000000000060208201527f0000000000000000000000000000000000000000000000000000000000000000602282015260428101859052600090600190606201604080517fffffffffffffffffffffffffffffffffffffffffffffffffffffffffffffffe08184030181528282528051602091820120600084529083018083525260ff871690820152606081018590526080810184905260a0016020604051602081039080840390855afa158015612595573d6000803e3d6000fd5b50506040517fffffffffffffffffffffffffffffffffffffffffffffffffffffffffffffffe001519695505050505050565b6000612629826040518060400160405280602081526020017f5361666545524332303a206c6f772d6c6576656c2063616c6c206661696c65648152508573ffffffffffffffffffffffffffffffffffffffff166126d39092919063ffffffff16565b80519091501561064e57808060200190518101906126479190612d53565b61064e576040517f08c379a000000000000000000000000000000000000000000000000000000000815260206004820152602a60248201527f5361666545524332303a204552433230206f7065726174696f6e20646964206e60448201527f6f7420737563636565640000000000000000000000000000000000000000000060648201526084016107c2565b6060610cf584846000858573ffffffffffffffffffffffffffffffffffffffff85163b61275c576040517f08c379a000000000000000000000000000000000000000000000000000000000815260206004820152601d60248201527f416464726573733a2063616c6c20746f206e6f6e2d636f6e747261637400000060448201526064016107c2565b6000808673ffffffffffffffffffffffffffffffffffffffff1685876040516127859190612d99565b60006040518083038185875af1925050503d80600081146127c2576040519150601f19603f3d011682016040523d82523d6000602084013e6127c7565b606091505b50915091506127d78282866127e2565b979650505050505050565b606083156127f1575081610dd9565b8251156128015782518084602001fd5b816040517f08c379a00000000000000000000000000000000000000000000000000000000081526004016107c29190612db5565b803573ffffffffffffffffffffffffffffffffffffffff8116811461285957600080fd5b919050565b6000806040838503121561287157600080fd5b61287a83612835565b946020939093013593505050565b6000806020838503121561289b57600080fd5b823567ffffffffffffffff808211156128b357600080fd5b818501915085601f8301126128c757600080fd5b8135818111156128d657600080fd5b8660208260051b85010111156128eb57600080fd5b60209290920196919550909350505050565b803560ff8116811461285957600080fd5b60008060008060008060008060008060006101608c8e03121561293057600080fd5b6129398c612835565b9a5060208c0135995060408c0135985061295560608d01612835565b975061296360808d01612835565b965060a08c0135955061297860c08d01612835565b945060e08c0135935061298e6101008d016128fd565b92506101208c013591506101408c013590509295989b509295989b9093969950565b6000806000806000806000806000806101408b8d0312156129d057600080fd5b8a35995060208b013598506129e760408c01612835565b97506129f560608c01612835565b965060808b01359550612a0a60a08c01612835565b945060c08b01359350612a1f60e08c016128fd565b92506101008b013591506101208b013590509295989b9194979a5092959850565b60008060408385031215612a5357600080fd5b50508035926020909101359150565b600060208284031215612a7457600080fd5b5035919050565b600060208284031215612a8d57600080fd5b610dd982612835565b6000604082018483526020604081850152818551808452606086019150828701935060005b81811015612ad757845183529383019391830191600101612abb565b5090979650505050505050565b7f4e487b7100000000000000000000000000000000000000000000000000000000600052601260045260246000fd5b7f4e487b7100000000000000000000000000000000000000000000000000000000600052601160045260246000fd5b600082612b5157612b51612ae4565b500490565b600082612b6557612b65612ae4565b500690565b7f4e487b7100000000000000000000000000000000000000000000000000000000600052603260045260246000fd5b60007fffffffffffffffffffffffffffffffffffffffffffffffffffffffffffffffff8203612bca57612bca612b13565b5060010190565b80820281158282048414176105d0576105d0612b13565b600181815b80851115612c4157817fffffffffffffffffffffffffffffffffffffffffffffffffffffffffffffffff04821115612c2757612c27612b13565b80851615612c3457918102915b93841c9390800290612bed565b509250929050565b600082612c58575060016105d0565b81612c65575060006105d0565b8160018114612c7b5760028114612c8557612ca1565b60019150506105d0565b60ff841115612c9657612c96612b13565b50506001821b6105d0565b5060208310610133831016604e8410600b8410161715612cc4575081810a6105d0565b612cce8383612be8565b807fffffffffffffffffffffffffffffffffffffffffffffffffffffffffffffffff04821115612d0057612d00612b13565b029392505050565b6000610dd98383612c49565b808201808211156105d0576105d0612b13565b600060208284031215612d3957600080fd5b5051919050565b818103818111156105d0576105d0612b13565b600060208284031215612d6557600080fd5b81518015158114610dd957600080fd5b60005b83811015612d90578181015183820152602001612d78565b50506000910152565b60008251612dab818460208701612d75565b9190910192915050565b6020815260008251806020840152612dd4816040850160208701612d75565b601f017fffffffffffffffffffffffffffffffffffffffffffffffffffffffffffffffe016919091016040019291505056fea2646970667358221220247487272b05abc41396aaca944b4ab553836ac521bd1f2f3e2caebf00c5118d64736f6c63430008110033","opcodes":"PUSH1 0xC0 PUSH1 0x40 MSTORE CALLVALUE DUP1 ISZERO PUSH3 0x11 JUMPI PUSH1 0x0 DUP1 REVERT JUMPDEST POP PUSH1 0x40 MLOAD PUSH3 0x3222 CODESIZE SUB DUP1 PUSH3 0x3222 DUP4 CODECOPY DUP2 ADD PUSH1 0x40 DUP2 SWAP1 MSTORE PUSH3 0x34 SWAP2 PUSH3 0x347 JUMP JUMPDEST PUSH3 0x3F CALLER PUSH3 0x2DA JUMP JUMPDEST PUSH2 0x2710 DUP7 LT PUSH3 0x84 JUMPI PUSH1 0x40 MLOAD PUSH3 0x461BCD PUSH1 0xE5 SHL DUP2 MSTORE PUSH1 0x20 PUSH1 0x4 DUP3 ADD MSTORE PUSH1 0xB PUSH1 0x24 DUP3 ADD MSTORE PUSH11 0x494E56414C49445F464545 PUSH1 0xA8 SHL PUSH1 0x44 DUP3 ADD MSTORE PUSH1 0x64 ADD JUMPDEST PUSH1 0x40 MLOAD DUP1 SWAP2 SUB SWAP1 REVERT JUMPDEST PUSH2 0x2710 DUP6 LT PUSH3 0xC5 JUMPI PUSH1 0x40 MLOAD PUSH3 0x461BCD PUSH1 0xE5 SHL DUP2 MSTORE PUSH1 0x20 PUSH1 0x4 DUP3 ADD MSTORE PUSH1 0xB PUSH1 0x24 DUP3 ADD MSTORE PUSH11 0x494E56414C49445F464545 PUSH1 0xA8 SHL PUSH1 0x44 DUP3 ADD MSTORE PUSH1 0x64 ADD PUSH3 0x7B JUMP JUMPDEST PUSH1 0x1 PUSH1 0x1 PUSH1 0xA0 SHL SUB DUP5 AND PUSH3 0x112 JUMPI PUSH1 0x40 MLOAD PUSH3 0x461BCD PUSH1 0xE5 SHL DUP2 MSTORE PUSH1 0x20 PUSH1 0x4 DUP3 ADD MSTORE PUSH1 0x12 PUSH1 0x24 DUP3 ADD MSTORE PUSH18 0x1253959053125117D1915157D5D053131155 PUSH1 0x72 SHL PUSH1 0x44 DUP3 ADD MSTORE PUSH1 0x64 ADD PUSH3 0x7B JUMP JUMPDEST PUSH1 0x4D DUP4 GT ISZERO PUSH3 0x156 JUMPI PUSH1 0x40 MLOAD PUSH3 0x461BCD PUSH1 0xE5 SHL DUP2 MSTORE PUSH1 0x20 PUSH1 0x4 DUP3 ADD MSTORE PUSH1 0xE PUSH1 0x24 DUP3 ADD MSTORE PUSH14 0xA68682988ABEA89E9EBE90928E9 PUSH1 0x93 SHL PUSH1 0x44 DUP3 ADD MSTORE PUSH1 0x64 ADD PUSH3 0x7B JUMP JUMPDEST PUSH1 0x64 DUP3 GT ISZERO PUSH3 0x198 JUMPI PUSH1 0x40 MLOAD PUSH3 0x461BCD PUSH1 0xE5 SHL DUP2 MSTORE PUSH1 0x20 PUSH1 0x4 DUP3 ADD MSTORE PUSH1 0xC PUSH1 0x24 DUP3 ADD MSTORE PUSH12 0x9A82B0BEA89E9EBE90928E9 PUSH1 0xA3 SHL PUSH1 0x44 DUP3 ADD MSTORE PUSH1 0x64 ADD PUSH3 0x7B JUMP JUMPDEST PUSH1 0x1 PUSH1 0x1 PUSH1 0xA0 SHL SUB DUP2 AND PUSH3 0x1E2 JUMPI PUSH1 0x40 MLOAD PUSH3 0x461BCD PUSH1 0xE5 SHL DUP2 MSTORE PUSH1 0x20 PUSH1 0x4 DUP3 ADD MSTORE PUSH1 0xF PUSH1 0x24 DUP3 ADD MSTORE PUSH15 0x494E56414C49445F5354414B494E47 PUSH1 0x88 SHL PUSH1 0x44 DUP3 ADD MSTORE PUSH1 0x64 ADD PUSH3 0x7B JUMP JUMPDEST PUSH1 0x0 CHAINID PUSH1 0x80 DUP2 DUP2 MSTORE PUSH1 0x40 DUP1 MLOAD PUSH32 0x8B73C3C69BB8FE3D512ECC4CF759CC79239F7B179B0FFACAA9A75D522B39400F PUSH1 0x20 DUP3 ADD MSTORE PUSH32 0x497A7733C30C446BED91D579FCE5EDE8C3E0FBCDBE90A491D0A07E91D5B88B71 SWAP2 DUP2 ADD SWAP2 SWAP1 SWAP2 MSTORE PUSH32 0x2A80E1EF1D7842F27F2E6BE0972BB708B9A135C38860DBE73C27C3486C34F4DE PUSH1 0x60 DUP3 ADD MSTORE SWAP1 DUP2 ADD DUP3 SWAP1 MSTORE ADDRESS PUSH1 0xA0 DUP3 ADD MSTORE SWAP1 SWAP2 POP PUSH1 0xC0 ADD PUSH1 0x40 DUP1 MLOAD PUSH1 0x1F NOT DUP2 DUP5 SUB ADD DUP2 MSTORE SWAP2 SWAP1 MSTORE DUP1 MLOAD PUSH1 0x20 SWAP1 SWAP2 ADD KECCAK256 PUSH1 0xA0 MSTORE POP PUSH1 0x3 SWAP6 SWAP1 SWAP6 SSTORE PUSH1 0x4 SWAP4 SWAP1 SWAP4 SSTORE PUSH1 0x5 DUP1 SLOAD PUSH1 0x1 PUSH1 0x1 PUSH1 0xA0 SHL SUB SWAP4 DUP5 AND PUSH1 0x1 PUSH1 0x1 PUSH1 0xA0 SHL SUB NOT SWAP2 DUP3 AND OR SWAP1 SWAP2 SSTORE PUSH1 0x6 SWAP2 SWAP1 SWAP2 SSTORE PUSH1 0x7 SWAP3 SWAP1 SWAP3 SSTORE PUSH1 0x8 DUP1 SLOAD SWAP2 SWAP1 SWAP4 AND SWAP2 AND OR SWAP1 SSTORE PUSH3 0x3A4 JUMP JUMPDEST PUSH1 0x0 DUP1 SLOAD PUSH1 0x1 PUSH1 0x1 PUSH1 0xA0 SHL SUB DUP4 DUP2 AND PUSH1 0x1 PUSH1 0x1 PUSH1 0xA0 SHL SUB NOT DUP4 AND DUP2 OR DUP5 SSTORE PUSH1 0x40 MLOAD SWAP2 SWAP1 SWAP3 AND SWAP3 DUP4 SWAP2 PUSH32 0x8BE0079C531659141344CD1FD0A4F28419497F9722A3DAAFE3B4186F6B6457E0 SWAP2 SWAP1 LOG3 POP POP JUMP JUMPDEST DUP1 MLOAD PUSH1 0x1 PUSH1 0x1 PUSH1 0xA0 SHL SUB DUP2 AND DUP2 EQ PUSH3 0x342 JUMPI PUSH1 0x0 DUP1 REVERT JUMPDEST SWAP2 SWAP1 POP JUMP JUMPDEST PUSH1 0x0 DUP1 PUSH1 0x0 DUP1 PUSH1 0x0 DUP1 PUSH1 0xC0 DUP8 DUP10 SUB SLT ISZERO PUSH3 0x361 JUMPI PUSH1 0x0 DUP1 REVERT JUMPDEST DUP7 MLOAD SWAP6 POP PUSH1 0x20 DUP8 ADD MLOAD SWAP5 POP PUSH3 0x37A PUSH1 0x40 DUP9 ADD PUSH3 0x32A JUMP JUMPDEST SWAP4 POP PUSH1 0x60 DUP8 ADD MLOAD SWAP3 POP PUSH1 0x80 DUP8 ADD MLOAD SWAP2 POP PUSH3 0x398 PUSH1 0xA0 DUP9 ADD PUSH3 0x32A JUMP JUMPDEST SWAP1 POP SWAP3 SWAP6 POP SWAP3 SWAP6 POP SWAP3 SWAP6 JUMP JUMPDEST PUSH1 0x80 MLOAD PUSH1 0xA0 MLOAD PUSH2 0x2E3C PUSH3 0x3E6 PUSH1 0x0 CODECOPY PUSH1 0x0 DUP2 DUP2 PUSH2 0x2A8 ADD MSTORE DUP2 DUP2 PUSH2 0x901 ADD MSTORE PUSH2 0x24E5 ADD MSTORE PUSH1 0x0 DUP2 DUP2 PUSH2 0x2E2 ADD MSTORE DUP2 DUP2 PUSH2 0x740 ADD MSTORE PUSH2 0x1E68 ADD MSTORE PUSH2 0x2E3C PUSH1 0x0 RETURN INVALID PUSH1 0x80 PUSH1 0x40 MSTORE CALLVALUE DUP1 ISZERO PUSH2 0x10 JUMPI PUSH1 0x0 DUP1 REVERT JUMPDEST POP PUSH1 0x4 CALLDATASIZE LT PUSH2 0x226 JUMPI PUSH1 0x0 CALLDATALOAD PUSH1 0xE0 SHR DUP1 PUSH4 0x8FF39099 GT PUSH2 0x12A JUMPI DUP1 PUSH4 0xB9CB01B0 GT PUSH2 0xBD JUMPI DUP1 PUSH4 0xDB985CD9 GT PUSH2 0x8C JUMPI DUP1 PUSH4 0xF2FDE38B GT PUSH2 0x71 JUMPI DUP1 PUSH4 0xF2FDE38B EQ PUSH2 0x531 JUMPI DUP1 PUSH4 0xF4EBC699 EQ PUSH2 0x544 JUMPI DUP1 PUSH4 0xF973A209 EQ PUSH2 0x54D JUMPI PUSH1 0x0 DUP1 REVERT JUMPDEST DUP1 PUSH4 0xDB985CD9 EQ PUSH2 0x515 JUMPI DUP1 PUSH4 0xE95B771C EQ PUSH2 0x51E JUMPI PUSH1 0x0 DUP1 REVERT JUMPDEST DUP1 PUSH4 0xB9CB01B0 EQ PUSH2 0x4AE JUMPI DUP1 PUSH4 0xBFD4E557 EQ PUSH2 0x4CF JUMPI DUP1 PUSH4 0xCBF7C6C3 EQ PUSH2 0x4E2 JUMPI DUP1 PUSH4 0xD31EAA83 EQ PUSH2 0x502 JUMPI PUSH1 0x0 DUP1 REVERT JUMPDEST DUP1 PUSH4 0xB0E21E8A GT PUSH2 0xF9 JUMPI DUP1 PUSH4 0xB0E21E8A EQ PUSH2 0x454 JUMPI DUP1 PUSH4 0xB6549F75 EQ PUSH2 0x45D JUMPI DUP1 PUSH4 0xB6A5D7DE EQ PUSH2 0x465 JUMPI DUP1 PUSH4 0xB9181611 EQ PUSH2 0x478 JUMPI PUSH1 0x0 DUP1 REVERT JUMPDEST DUP1 PUSH4 0x8FF39099 EQ PUSH2 0x3FE JUMPI DUP1 PUSH4 0x98956069 EQ PUSH2 0x411 JUMPI DUP1 PUSH4 0x9E93AD8E EQ PUSH2 0x424 JUMPI DUP1 PUSH4 0xACB8CC49 EQ PUSH2 0x42D JUMPI PUSH1 0x0 DUP1 REVERT JUMPDEST DUP1 PUSH4 0x4CF088D9 GT PUSH2 0x1BD JUMPI DUP1 PUSH4 0x770FDE12 GT PUSH2 0x18C JUMPI DUP1 PUSH4 0x796F077B GT PUSH2 0x171 JUMPI DUP1 PUSH4 0x796F077B EQ PUSH2 0x3A6 JUMPI DUP1 PUSH4 0x7CE78525 EQ PUSH2 0x3CD JUMPI DUP1 PUSH4 0x8DA5CB5B EQ PUSH2 0x3E0 JUMPI PUSH1 0x0 DUP1 REVERT JUMPDEST DUP1 PUSH4 0x770FDE12 EQ PUSH2 0x38A JUMPI DUP1 PUSH4 0x787DCE3D EQ PUSH2 0x393 JUMPI PUSH1 0x0 DUP1 REVERT JUMPDEST DUP1 PUSH4 0x4CF088D9 EQ PUSH2 0x317 JUMPI DUP1 PUSH4 0x4D2AF2B2 EQ PUSH2 0x35C JUMPI DUP1 PUSH4 0x52C5F1F5 EQ PUSH2 0x36F JUMPI DUP1 PUSH4 0x715018A6 EQ PUSH2 0x382 JUMPI PUSH1 0x0 DUP1 REVERT JUMPDEST DUP1 PUSH4 0x3644E515 GT PUSH2 0x1F9 JUMPI DUP1 PUSH4 0x3644E515 EQ PUSH2 0x2A3 JUMPI DUP1 PUSH4 0x3EB1AF24 EQ PUSH2 0x2CA JUMPI DUP1 PUSH4 0x416F281D EQ PUSH2 0x2DD JUMPI DUP1 PUSH4 0x46E4480D EQ PUSH2 0x304 JUMPI PUSH1 0x0 DUP1 REVERT JUMPDEST DUP1 PUSH4 0x1647795E EQ PUSH2 0x22B JUMPI DUP1 PUSH4 0x20606B70 EQ PUSH2 0x253 JUMPI DUP1 PUSH4 0x2E340823 EQ PUSH2 0x288 JUMPI DUP1 PUSH4 0x3408E470 EQ PUSH2 0x29D JUMPI JUMPDEST PUSH1 0x0 DUP1 REVERT JUMPDEST PUSH2 0x23E PUSH2 0x239 CALLDATASIZE PUSH1 0x4 PUSH2 0x285E JUMP JUMPDEST PUSH2 0x574 JUMP JUMPDEST PUSH1 0x40 MLOAD SWAP1 ISZERO ISZERO DUP2 MSTORE PUSH1 0x20 ADD JUMPDEST PUSH1 0x40 MLOAD DUP1 SWAP2 SUB SWAP1 RETURN JUMPDEST PUSH2 0x27A PUSH32 0x8B73C3C69BB8FE3D512ECC4CF759CC79239F7B179B0FFACAA9A75D522B39400F DUP2 JUMP JUMPDEST PUSH1 0x40 MLOAD SWAP1 DUP2 MSTORE PUSH1 0x20 ADD PUSH2 0x24A JUMP JUMPDEST PUSH2 0x29B PUSH2 0x296 CALLDATASIZE PUSH1 0x4 PUSH2 0x2888 JUMP JUMPDEST PUSH2 0x5D6 JUMP JUMPDEST STOP JUMPDEST CHAINID PUSH2 0x27A JUMP JUMPDEST PUSH2 0x27A PUSH32 0x0 DUP2 JUMP JUMPDEST PUSH2 0x29B PUSH2 0x2D8 CALLDATASIZE PUSH1 0x4 PUSH2 0x290E JUMP JUMPDEST PUSH2 0x653 JUMP JUMPDEST PUSH2 0x27A PUSH32 0x0 DUP2 JUMP JUMPDEST PUSH2 0x29B PUSH2 0x312 CALLDATASIZE PUSH1 0x4 PUSH2 0x29B0 JUMP JUMPDEST PUSH2 0x73D JUMP JUMPDEST PUSH1 0x8 SLOAD PUSH2 0x337 SWAP1 PUSH20 0xFFFFFFFFFFFFFFFFFFFFFFFFFFFFFFFFFFFFFFFF AND DUP2 JUMP JUMPDEST PUSH1 0x40 MLOAD PUSH20 0xFFFFFFFFFFFFFFFFFFFFFFFFFFFFFFFFFFFFFFFF SWAP1 SWAP2 AND DUP2 MSTORE PUSH1 0x20 ADD PUSH2 0x24A JUMP JUMPDEST PUSH2 0x27A PUSH2 0x36A CALLDATASIZE PUSH1 0x4 PUSH2 0x2A40 JUMP JUMPDEST PUSH2 0xCA6 JUMP JUMPDEST PUSH2 0x27A PUSH2 0x37D CALLDATASIZE PUSH1 0x4 PUSH2 0x285E JUMP JUMPDEST PUSH2 0xCFD JUMP JUMPDEST PUSH2 0x29B PUSH2 0xDE0 JUMP JUMPDEST PUSH2 0x27A PUSH1 0x7 SLOAD DUP2 JUMP JUMPDEST PUSH2 0x29B PUSH2 0x3A1 CALLDATASIZE PUSH1 0x4 PUSH2 0x2A62 JUMP JUMPDEST PUSH2 0xDF4 JUMP JUMPDEST PUSH2 0x27A PUSH32 0x497A7733C30C446BED91D579FCE5EDE8C3E0FBCDBE90A491D0A07E91D5B88B71 DUP2 JUMP JUMPDEST PUSH2 0x29B PUSH2 0x3DB CALLDATASIZE PUSH1 0x4 PUSH2 0x2A7B JUMP JUMPDEST PUSH2 0xEA3 JUMP JUMPDEST PUSH1 0x0 SLOAD PUSH20 0xFFFFFFFFFFFFFFFFFFFFFFFFFFFFFFFFFFFFFFFF AND PUSH2 0x337 JUMP JUMPDEST PUSH2 0x29B PUSH2 0x40C CALLDATASIZE PUSH1 0x4 PUSH2 0x2A7B JUMP JUMPDEST PUSH2 0xF97 JUMP JUMPDEST PUSH2 0x29B PUSH2 0x41F CALLDATASIZE PUSH1 0x4 PUSH2 0x290E JUMP JUMPDEST PUSH2 0x108B JUMP JUMPDEST PUSH2 0x27A PUSH2 0x2710 DUP2 JUMP JUMPDEST PUSH2 0x27A PUSH32 0x2A80E1EF1D7842F27F2E6BE0972BB708B9A135C38860DBE73C27C3486C34F4DE DUP2 JUMP JUMPDEST PUSH2 0x27A PUSH1 0x3 SLOAD DUP2 JUMP JUMPDEST PUSH2 0x29B PUSH2 0x109E JUMP JUMPDEST PUSH2 0x29B PUSH2 0x473 CALLDATASIZE PUSH1 0x4 PUSH2 0x2A7B JUMP JUMPDEST PUSH2 0x111B JUMP JUMPDEST PUSH2 0x337 PUSH2 0x486 CALLDATASIZE PUSH1 0x4 PUSH2 0x2A7B JUMP JUMPDEST PUSH1 0x2 PUSH1 0x20 MSTORE PUSH1 0x0 SWAP1 DUP2 MSTORE PUSH1 0x40 SWAP1 KECCAK256 SLOAD PUSH20 0xFFFFFFFFFFFFFFFFFFFFFFFFFFFFFFFFFFFFFFFF AND DUP2 JUMP JUMPDEST PUSH2 0x4C1 PUSH2 0x4BC CALLDATASIZE PUSH1 0x4 PUSH2 0x290E JUMP JUMPDEST PUSH2 0x1213 JUMP JUMPDEST PUSH1 0x40 MLOAD PUSH2 0x24A SWAP3 SWAP2 SWAP1 PUSH2 0x2A96 JUMP JUMPDEST PUSH2 0x29B PUSH2 0x4DD CALLDATASIZE PUSH1 0x4 PUSH2 0x2A62 JUMP JUMPDEST PUSH2 0x1B0B JUMP JUMPDEST PUSH1 0x5 SLOAD PUSH2 0x337 SWAP1 PUSH20 0xFFFFFFFFFFFFFFFFFFFFFFFFFFFFFFFFFFFFFFFF AND DUP2 JUMP JUMPDEST PUSH2 0x29B PUSH2 0x510 CALLDATASIZE PUSH1 0x4 PUSH2 0x2A62 JUMP JUMPDEST PUSH2 0x1BB3 JUMP JUMPDEST PUSH2 0x27A PUSH1 0x6 SLOAD DUP2 JUMP JUMPDEST PUSH2 0x29B PUSH2 0x52C CALLDATASIZE PUSH1 0x4 PUSH2 0x2A62 JUMP JUMPDEST PUSH2 0x1C5B JUMP JUMPDEST PUSH2 0x29B PUSH2 0x53F CALLDATASIZE PUSH1 0x4 PUSH2 0x2A7B JUMP JUMPDEST PUSH2 0x1D03 JUMP JUMPDEST PUSH2 0x27A PUSH1 0x4 SLOAD DUP2 JUMP JUMPDEST PUSH2 0x27A PUSH32 0xFF91E73EA790C2642A1CB1BF6C98E5211562AAE911FD8EACE405557CD7DC27A5 DUP2 JUMP JUMPDEST PUSH1 0x0 DUP1 PUSH2 0x583 PUSH2 0x100 DUP5 PUSH2 0x2B42 JUMP JUMPDEST SWAP1 POP PUSH1 0x0 PUSH2 0x593 PUSH2 0x100 DUP6 PUSH2 0x2B56 JUMP JUMPDEST PUSH20 0xFFFFFFFFFFFFFFFFFFFFFFFFFFFFFFFFFFFFFFFF DUP7 AND PUSH1 0x0 SWAP1 DUP2 MSTORE PUSH1 0x1 PUSH1 0x20 DUP2 DUP2 MSTORE PUSH1 0x40 DUP1 DUP5 KECCAK256 SWAP7 DUP5 MSTORE SWAP6 SWAP1 MSTORE SWAP4 SWAP1 KECCAK256 SLOAD SWAP1 SHR DUP3 AND SWAP1 SWAP2 EQ SWAP2 POP POP JUMPDEST SWAP3 SWAP2 POP POP JUMP JUMPDEST PUSH1 0x0 JUMPDEST DUP2 DUP2 LT ISZERO PUSH2 0x64E JUMPI PUSH1 0x0 DUP4 DUP4 DUP4 DUP2 DUP2 LT PUSH2 0x5F5 JUMPI PUSH2 0x5F5 PUSH2 0x2B6A JUMP JUMPDEST SWAP1 POP PUSH1 0x20 MUL ADD CALLDATALOAD SWAP1 POP PUSH2 0x608 CALLER DUP3 PUSH2 0x1DBA JUMP JUMPDEST ISZERO PUSH2 0x63B JUMPI PUSH1 0x40 MLOAD CALLER SWAP1 DUP3 SWAP1 PUSH32 0x8DD3C361EB2366FF27C2DB0EB07B9261F1D052570742AB8C9A0C326F37AA576D SWAP1 PUSH1 0x0 SWAP1 LOG3 JUMPDEST POP DUP1 PUSH2 0x646 DUP2 PUSH2 0x2B99 JUMP JUMPDEST SWAP2 POP POP PUSH2 0x5D9 JUMP JUMPDEST POP POP POP JUMP JUMPDEST PUSH2 0x667 DUP11 DUP11 DUP11 DUP11 DUP11 PUSH1 0x0 DUP12 DUP12 DUP12 DUP12 DUP12 PUSH2 0x1E65 JUMP JUMPDEST PUSH2 0x689 PUSH20 0xFFFFFFFFFFFFFFFFFFFFFFFFFFFFFFFFFFFFFFFF DUP7 AND CALLER DUP11 DUP8 PUSH2 0x2200 JUMP JUMPDEST PUSH2 0x6AB PUSH20 0xFFFFFFFFFFFFFFFFFFFFFFFFFFFFFFFFFFFFFFFF DUP9 AND DUP10 DUP14 DUP10 PUSH2 0x2200 JUMP JUMPDEST PUSH2 0x6B6 DUP8 DUP10 DUP9 PUSH2 0x229B JUMP JUMPDEST PUSH1 0x3 SLOAD PUSH1 0x40 DUP1 MLOAD TIMESTAMP DUP2 MSTORE PUSH20 0xFFFFFFFFFFFFFFFFFFFFFFFFFFFFFFFFFFFFFFFF DUP11 DUP2 AND PUSH1 0x20 DUP4 ADD MSTORE SWAP2 DUP2 ADD DUP10 SWAP1 MSTORE PUSH1 0x60 DUP2 ADD SWAP3 SWAP1 SWAP3 MSTORE DUP7 DUP2 AND PUSH1 0x80 DUP4 ADD MSTORE PUSH1 0xA0 DUP3 ADD DUP7 SWAP1 MSTORE CALLER SWAP2 SWAP1 DUP11 AND SWAP1 DUP13 SWAP1 PUSH32 0x6DFEB25E76D44E08965B639A9D9307DF8E1C3DBE2A6364194895E9C3992F033 SWAP1 PUSH1 0xC0 ADD JUMPDEST PUSH1 0x40 MLOAD DUP1 SWAP2 SUB SWAP1 LOG4 POP POP POP POP POP POP POP POP POP POP POP JUMP JUMPDEST CHAINID PUSH32 0x0 EQ PUSH2 0x7CB JUMPI PUSH1 0x40 MLOAD PUSH32 0x8C379A000000000000000000000000000000000000000000000000000000000 DUP2 MSTORE PUSH1 0x20 PUSH1 0x4 DUP3 ADD MSTORE PUSH1 0x10 PUSH1 0x24 DUP3 ADD MSTORE PUSH32 0x434841494E5F49445F4348414E47454400000000000000000000000000000000 PUSH1 0x44 DUP3 ADD MSTORE PUSH1 0x64 ADD JUMPDEST PUSH1 0x40 MLOAD DUP1 SWAP2 SUB SWAP1 REVERT JUMPDEST TIMESTAMP DUP10 GT PUSH2 0x834 JUMPI PUSH1 0x40 MLOAD PUSH32 0x8C379A000000000000000000000000000000000000000000000000000000000 DUP2 MSTORE PUSH1 0x20 PUSH1 0x4 DUP3 ADD MSTORE PUSH1 0xD PUSH1 0x24 DUP3 ADD MSTORE PUSH32 0x4558504952595F50415353454400000000000000000000000000000000000000 PUSH1 0x44 DUP3 ADD MSTORE PUSH1 0x64 ADD PUSH2 0x7C2 JUMP JUMPDEST PUSH1 0x4 SLOAD PUSH1 0x40 DUP1 MLOAD PUSH32 0xFF91E73EA790C2642A1CB1BF6C98E5211562AAE911FD8EACE405557CD7DC27A5 PUSH1 0x20 DUP1 DUP4 ADD SWAP2 SWAP1 SWAP2 MSTORE DUP2 DUP4 ADD DUP15 SWAP1 MSTORE PUSH1 0x60 DUP3 ADD DUP14 SWAP1 MSTORE PUSH20 0xFFFFFFFFFFFFFFFFFFFFFFFFFFFFFFFFFFFFFFFF DUP13 DUP2 AND PUSH1 0x80 DUP5 ADD MSTORE DUP12 DUP2 AND PUSH1 0xA0 DUP5 ADD MSTORE PUSH1 0xC0 DUP4 ADD DUP12 SWAP1 MSTORE PUSH1 0xE0 DUP4 ADD SWAP5 SWAP1 SWAP5 MSTORE CALLER PUSH2 0x100 DUP4 ADD MSTORE SWAP3 DUP9 AND PUSH2 0x120 DUP3 ADD MSTORE PUSH2 0x140 DUP1 DUP3 ADD DUP9 SWAP1 MSTORE DUP3 MLOAD DUP1 DUP4 SUB SWAP1 SWAP2 ADD DUP2 MSTORE PUSH2 0x160 DUP3 ADD SWAP1 SWAP3 MSTORE DUP2 MLOAD SWAP2 SWAP1 SWAP3 ADD KECCAK256 PUSH32 0x1901000000000000000000000000000000000000000000000000000000000000 PUSH2 0x180 DUP4 ADD MSTORE PUSH32 0x0 PUSH2 0x182 DUP4 ADD MSTORE PUSH2 0x1A2 DUP3 ADD MSTORE PUSH1 0x0 SWAP1 PUSH1 0x1 SWAP1 PUSH2 0x1C2 ADD PUSH1 0x40 DUP1 MLOAD PUSH32 0xFFFFFFFFFFFFFFFFFFFFFFFFFFFFFFFFFFFFFFFFFFFFFFFFFFFFFFFFFFFFFFE0 DUP2 DUP5 SUB ADD DUP2 MSTORE DUP3 DUP3 MSTORE DUP1 MLOAD PUSH1 0x20 SWAP2 DUP3 ADD KECCAK256 PUSH1 0x0 DUP5 MSTORE SWAP1 DUP4 ADD DUP1 DUP4 MSTORE MSTORE PUSH1 0xFF DUP8 AND SWAP1 DUP3 ADD MSTORE PUSH1 0x60 DUP2 ADD DUP6 SWAP1 MSTORE PUSH1 0x80 DUP2 ADD DUP5 SWAP1 MSTORE PUSH1 0xA0 ADD PUSH1 0x20 PUSH1 0x40 MLOAD PUSH1 0x20 DUP2 SUB SWAP1 DUP1 DUP5 SUB SWAP1 DUP6 GAS STATICCALL ISZERO DUP1 ISZERO PUSH2 0x9B2 JUMPI RETURNDATASIZE PUSH1 0x0 DUP1 RETURNDATACOPY RETURNDATASIZE PUSH1 0x0 REVERT JUMPDEST POP POP PUSH1 0x40 MLOAD PUSH32 0xFFFFFFFFFFFFFFFFFFFFFFFFFFFFFFFFFFFFFFFFFFFFFFFFFFFFFFFFFFFFFFE0 ADD MLOAD SWAP2 POP POP PUSH20 0xFFFFFFFFFFFFFFFFFFFFFFFFFFFFFFFFFFFFFFFF DUP2 AND PUSH2 0xA5A JUMPI PUSH1 0x40 MLOAD PUSH32 0x8C379A000000000000000000000000000000000000000000000000000000000 DUP2 MSTORE PUSH1 0x20 PUSH1 0x4 DUP3 ADD MSTORE PUSH1 0x11 PUSH1 0x24 DUP3 ADD MSTORE PUSH32 0x5349474E41545552455F494E56414C4944000000000000000000000000000000 PUSH1 0x44 DUP3 ADD MSTORE PUSH1 0x64 ADD PUSH2 0x7C2 JUMP JUMPDEST PUSH2 0xA64 DUP2 DUP13 PUSH2 0x1DBA JUMP JUMPDEST PUSH2 0xACA JUMPI PUSH1 0x40 MLOAD PUSH32 0x8C379A000000000000000000000000000000000000000000000000000000000 DUP2 MSTORE PUSH1 0x20 PUSH1 0x4 DUP3 ADD MSTORE PUSH1 0x12 PUSH1 0x24 DUP3 ADD MSTORE PUSH32 0x4E4F4E43455F414C52454144595F555345440000000000000000000000000000 PUSH1 0x44 DUP3 ADD MSTORE PUSH1 0x64 ADD PUSH2 0x7C2 JUMP JUMPDEST DUP1 PUSH20 0xFFFFFFFFFFFFFFFFFFFFFFFFFFFFFFFFFFFFFFFF AND DUP10 PUSH20 0xFFFFFFFFFFFFFFFFFFFFFFFFFFFFFFFFFFFFFFFF AND EQ PUSH2 0xB90 JUMPI PUSH20 0xFFFFFFFFFFFFFFFFFFFFFFFFFFFFFFFFFFFFFFFF DUP10 DUP2 AND PUSH1 0x0 SWAP1 DUP2 MSTORE PUSH1 0x2 PUSH1 0x20 MSTORE PUSH1 0x40 SWAP1 KECCAK256 SLOAD DUP2 AND SWAP1 DUP3 AND EQ PUSH2 0xB90 JUMPI PUSH1 0x40 MLOAD PUSH32 0x8C379A000000000000000000000000000000000000000000000000000000000 DUP2 MSTORE PUSH1 0x20 PUSH1 0x4 DUP3 ADD MSTORE PUSH1 0xC PUSH1 0x24 DUP3 ADD MSTORE PUSH32 0x554E415554484F52495A45440000000000000000000000000000000000000000 PUSH1 0x44 DUP3 ADD MSTORE PUSH1 0x64 ADD PUSH2 0x7C2 JUMP JUMPDEST PUSH2 0xBB2 PUSH20 0xFFFFFFFFFFFFFFFFFFFFFFFFFFFFFFFFFFFFFFFF DUP8 AND CALLER DUP12 DUP9 PUSH2 0x2200 JUMP JUMPDEST PUSH2 0xBD4 PUSH20 0xFFFFFFFFFFFFFFFFFFFFFFFFFFFFFFFFFFFFFFFF DUP10 AND DUP11 CALLER DUP11 PUSH2 0x2200 JUMP JUMPDEST PUSH1 0x5 SLOAD PUSH1 0x4 SLOAD PUSH2 0xC30 SWAP2 DUP12 SWAP2 PUSH20 0xFFFFFFFFFFFFFFFFFFFFFFFFFFFFFFFFFFFFFFFF SWAP1 SWAP2 AND SWAP1 PUSH2 0x2710 SWAP1 PUSH2 0xC07 SWAP1 DUP13 PUSH2 0x2BD1 JUMP JUMPDEST PUSH2 0xC11 SWAP2 SWAP1 PUSH2 0x2B42 JUMP JUMPDEST PUSH20 0xFFFFFFFFFFFFFFFFFFFFFFFFFFFFFFFFFFFFFFFF DUP13 AND SWAP3 SWAP2 SWAP1 PUSH2 0x2200 JUMP JUMPDEST PUSH1 0x4 SLOAD PUSH1 0x40 DUP1 MLOAD TIMESTAMP DUP2 MSTORE PUSH20 0xFFFFFFFFFFFFFFFFFFFFFFFFFFFFFFFFFFFFFFFF DUP12 DUP2 AND PUSH1 0x20 DUP4 ADD MSTORE SWAP2 DUP2 ADD DUP11 SWAP1 MSTORE PUSH1 0x60 DUP2 ADD SWAP3 SWAP1 SWAP3 MSTORE DUP8 DUP2 AND PUSH1 0x80 DUP4 ADD MSTORE PUSH1 0xA0 DUP3 ADD DUP8 SWAP1 MSTORE CALLER SWAP2 SWAP1 DUP12 AND SWAP1 DUP14 SWAP1 PUSH32 0x6DFEB25E76D44E08965B639A9D9307DF8E1C3DBE2A6364194895E9C3992F033 SWAP1 PUSH1 0xC0 ADD PUSH2 0x728 JUMP JUMPDEST PUSH1 0x0 DUP1 DUP4 PUSH1 0x6 SLOAD PUSH1 0xA PUSH2 0xCB9 SWAP2 SWAP1 PUSH2 0x2D08 JUMP JUMPDEST PUSH2 0xCC3 SWAP2 SWAP1 PUSH2 0x2D14 JUMP JUMPDEST SWAP1 POP PUSH1 0x64 DUP2 DUP5 DUP7 PUSH1 0x7 SLOAD PUSH2 0xCD7 SWAP2 SWAP1 PUSH2 0x2BD1 JUMP JUMPDEST PUSH2 0xCE1 SWAP2 SWAP1 PUSH2 0x2BD1 JUMP JUMPDEST PUSH2 0xCEB SWAP2 SWAP1 PUSH2 0x2B42 JUMP JUMPDEST PUSH2 0xCF5 SWAP2 SWAP1 PUSH2 0x2B42 JUMP JUMPDEST SWAP5 SWAP4 POP POP POP POP JUMP JUMPDEST PUSH1 0x0 DUP1 PUSH2 0x2710 PUSH1 0x3 SLOAD DUP5 PUSH2 0xD11 SWAP2 SWAP1 PUSH2 0x2BD1 JUMP JUMPDEST PUSH2 0xD1B SWAP2 SWAP1 PUSH2 0x2B42 JUMP JUMPDEST SWAP1 POP DUP1 ISZERO PUSH2 0xDD9 JUMPI PUSH1 0x8 SLOAD PUSH1 0x40 MLOAD PUSH32 0x70A0823100000000000000000000000000000000000000000000000000000000 DUP2 MSTORE PUSH20 0xFFFFFFFFFFFFFFFFFFFFFFFFFFFFFFFFFFFFFFFF DUP7 DUP2 AND PUSH1 0x4 DUP4 ADD MSTORE PUSH1 0x0 SWAP3 PUSH2 0xDC4 SWAP3 SWAP2 AND SWAP1 PUSH4 0x70A08231 SWAP1 PUSH1 0x24 ADD JUMPDEST PUSH1 0x20 PUSH1 0x40 MLOAD DUP1 DUP4 SUB DUP2 DUP7 GAS STATICCALL ISZERO DUP1 ISZERO PUSH2 0xD9A JUMPI RETURNDATASIZE PUSH1 0x0 DUP1 RETURNDATACOPY RETURNDATASIZE PUSH1 0x0 REVERT JUMPDEST POP POP POP POP PUSH1 0x40 MLOAD RETURNDATASIZE PUSH1 0x1F NOT PUSH1 0x1F DUP3 ADD AND DUP3 ADD DUP1 PUSH1 0x40 MSTORE POP DUP2 ADD SWAP1 PUSH2 0xDBE SWAP2 SWAP1 PUSH2 0x2D27 JUMP JUMPDEST DUP4 PUSH2 0xCA6 JUMP JUMPDEST SWAP1 POP PUSH2 0xDD0 DUP2 DUP4 PUSH2 0x2D40 JUMP JUMPDEST SWAP3 POP POP POP PUSH2 0x5D0 JUMP JUMPDEST SWAP4 SWAP3 POP POP POP JUMP JUMPDEST PUSH2 0xDE8 PUSH2 0x23C4 JUMP JUMPDEST PUSH2 0xDF2 PUSH1 0x0 PUSH2 0x2445 JUMP JUMPDEST JUMP JUMPDEST PUSH2 0xDFC PUSH2 0x23C4 JUMP JUMPDEST PUSH2 0x2710 DUP2 LT PUSH2 0xE67 JUMPI PUSH1 0x40 MLOAD PUSH32 0x8C379A000000000000000000000000000000000000000000000000000000000 DUP2 MSTORE PUSH1 0x20 PUSH1 0x4 DUP3 ADD MSTORE PUSH1 0xB PUSH1 0x24 DUP3 ADD MSTORE PUSH32 0x494E56414C49445F464545000000000000000000000000000000000000000000 PUSH1 0x44 DUP3 ADD MSTORE PUSH1 0x64 ADD PUSH2 0x7C2 JUMP JUMPDEST PUSH1 0x3 DUP2 SWAP1 SSTORE PUSH1 0x40 MLOAD DUP2 DUP2 MSTORE PUSH32 0xDC0410A296E1E33943A772020D333D5F99319D7FCAD932A484C53889F7AAA2B1 SWAP1 PUSH1 0x20 ADD JUMPDEST PUSH1 0x40 MLOAD DUP1 SWAP2 SUB SWAP1 LOG1 POP JUMP JUMPDEST PUSH2 0xEAB PUSH2 0x23C4 JUMP JUMPDEST PUSH20 0xFFFFFFFFFFFFFFFFFFFFFFFFFFFFFFFFFFFFFFFF DUP2 AND PUSH2 0xF28 JUMPI PUSH1 0x40 MLOAD PUSH32 0x8C379A000000000000000000000000000000000000000000000000000000000 DUP2 MSTORE PUSH1 0x20 PUSH1 0x4 DUP3 ADD MSTORE PUSH1 0x12 PUSH1 0x24 DUP3 ADD MSTORE PUSH32 0x494E56414C49445F4645455F57414C4C45540000000000000000000000000000 PUSH1 0x44 DUP3 ADD MSTORE PUSH1 0x64 ADD PUSH2 0x7C2 JUMP JUMPDEST PUSH1 0x5 DUP1 SLOAD PUSH32 0xFFFFFFFFFFFFFFFFFFFFFFFF0000000000000000000000000000000000000000 AND PUSH20 0xFFFFFFFFFFFFFFFFFFFFFFFFFFFFFFFFFFFFFFFF DUP4 AND SWAP1 DUP2 OR SWAP1 SWAP2 SSTORE PUSH1 0x40 MLOAD PUSH32 0x8B2A800CE9E2E7CCDF4741AE0E41B1F16983192291080AE3B78AC4296DDF598A SWAP1 PUSH1 0x0 SWAP1 LOG2 POP JUMP JUMPDEST PUSH2 0xF9F PUSH2 0x23C4 JUMP JUMPDEST PUSH20 0xFFFFFFFFFFFFFFFFFFFFFFFFFFFFFFFFFFFFFFFF DUP2 AND PUSH2 0x101C JUMPI PUSH1 0x40 MLOAD PUSH32 0x8C379A000000000000000000000000000000000000000000000000000000000 DUP2 MSTORE PUSH1 0x20 PUSH1 0x4 DUP3 ADD MSTORE PUSH1 0xF PUSH1 0x24 DUP3 ADD MSTORE PUSH32 0x494E56414C49445F5354414B494E470000000000000000000000000000000000 PUSH1 0x44 DUP3 ADD MSTORE PUSH1 0x64 ADD PUSH2 0x7C2 JUMP JUMPDEST PUSH1 0x8 DUP1 SLOAD PUSH32 0xFFFFFFFFFFFFFFFFFFFFFFFF0000000000000000000000000000000000000000 AND PUSH20 0xFFFFFFFFFFFFFFFFFFFFFFFFFFFFFFFFFFFFFFFF DUP4 AND SWAP1 DUP2 OR SWAP1 SWAP2 SSTORE PUSH1 0x40 MLOAD PUSH32 0x58FD5D9C33114E6EDF8EA5D30956F8D1A4AB112B004F99928B4BCF1B87D66662 SWAP1 PUSH1 0x0 SWAP1 LOG2 POP JUMP JUMPDEST PUSH2 0x667 DUP11 DUP11 DUP11 DUP11 DUP11 CALLER DUP12 DUP12 DUP12 DUP12 DUP12 PUSH2 0x1E65 JUMP JUMPDEST CALLER PUSH1 0x0 DUP2 DUP2 MSTORE PUSH1 0x2 PUSH1 0x20 MSTORE PUSH1 0x40 DUP1 DUP3 KECCAK256 DUP1 SLOAD PUSH32 0xFFFFFFFFFFFFFFFFFFFFFFFF0000000000000000000000000000000000000000 DUP2 AND SWAP1 SWAP2 SSTORE SWAP1 MLOAD PUSH20 0xFFFFFFFFFFFFFFFFFFFFFFFFFFFFFFFFFFFFFFFF SWAP1 SWAP2 AND SWAP3 SWAP2 DUP4 SWAP2 PUSH32 0xD7426110292F20FE59E73CCF52124E0F5440A756507C91C7B0A6C50E1EB1A23A SWAP2 SWAP1 LOG3 POP JUMP JUMPDEST PUSH20 0xFFFFFFFFFFFFFFFFFFFFFFFFFFFFFFFFFFFFFFFF DUP2 AND PUSH2 0x1198 JUMPI PUSH1 0x40 MLOAD PUSH32 0x8C379A000000000000000000000000000000000000000000000000000000000 DUP2 MSTORE PUSH1 0x20 PUSH1 0x4 DUP3 ADD MSTORE PUSH1 0xE PUSH1 0x24 DUP3 ADD MSTORE PUSH32 0x5349474E45525F494E56414C4944000000000000000000000000000000000000 PUSH1 0x44 DUP3 ADD MSTORE PUSH1 0x64 ADD PUSH2 0x7C2 JUMP JUMPDEST CALLER PUSH1 0x0 DUP2 DUP2 MSTORE PUSH1 0x2 PUSH1 0x20 MSTORE PUSH1 0x40 DUP1 DUP3 KECCAK256 DUP1 SLOAD PUSH32 0xFFFFFFFFFFFFFFFFFFFFFFFF0000000000000000000000000000000000000000 AND PUSH20 0xFFFFFFFFFFFFFFFFFFFFFFFFFFFFFFFFFFFFFFFF DUP7 AND SWAP1 DUP2 OR SWAP1 SWAP2 SSTORE SWAP1 MLOAD SWAP1 SWAP2 PUSH32 0x30468DE898BDA644E26BAB66E5A2241A3AA6AAF527257F5CA54E0F65204BA14A SWAP2 LOG3 POP JUMP JUMPDEST PUSH1 0x40 DUP1 MLOAD PUSH1 0x6 DUP1 DUP3 MSTORE PUSH1 0xE0 DUP3 ADD SWAP1 SWAP3 MSTORE PUSH1 0x0 SWAP2 PUSH1 0x60 SWAP2 DUP4 SWAP2 PUSH1 0x20 DUP3 ADD PUSH1 0xC0 DUP1 CALLDATASIZE DUP4 CALLDATACOPY ADD SWAP1 POP POP PUSH1 0x40 DUP1 MLOAD PUSH2 0x160 DUP2 ADD DUP3 MSTORE PUSH1 0x0 DUP1 DUP3 MSTORE PUSH1 0x20 DUP3 ADD DUP2 SWAP1 MSTORE SWAP2 DUP2 ADD DUP3 SWAP1 MSTORE PUSH1 0x60 DUP2 ADD DUP3 SWAP1 MSTORE PUSH1 0x80 DUP2 ADD DUP3 SWAP1 MSTORE PUSH1 0xA0 DUP2 ADD DUP3 SWAP1 MSTORE PUSH1 0xC0 DUP2 ADD DUP3 SWAP1 MSTORE PUSH1 0xE0 DUP2 ADD DUP3 SWAP1 MSTORE PUSH2 0x100 DUP2 ADD DUP3 SWAP1 MSTORE PUSH2 0x120 DUP2 ADD DUP3 SWAP1 MSTORE PUSH2 0x140 DUP2 ADD SWAP2 SWAP1 SWAP2 MSTORE SWAP1 SWAP2 POP PUSH1 0x0 DUP15 DUP3 PUSH1 0x0 ADD DUP2 DUP2 MSTORE POP POP DUP14 DUP3 PUSH1 0x20 ADD DUP2 DUP2 MSTORE POP POP DUP13 DUP3 PUSH1 0x40 ADD SWAP1 PUSH20 0xFFFFFFFFFFFFFFFFFFFFFFFFFFFFFFFFFFFFFFFF AND SWAP1 DUP2 PUSH20 0xFFFFFFFFFFFFFFFFFFFFFFFFFFFFFFFFFFFFFFFF AND DUP2 MSTORE POP POP DUP12 DUP3 PUSH1 0x60 ADD SWAP1 PUSH20 0xFFFFFFFFFFFFFFFFFFFFFFFFFFFFFFFFFFFFFFFF AND SWAP1 DUP2 PUSH20 0xFFFFFFFFFFFFFFFFFFFFFFFFFFFFFFFFFFFFFFFF AND DUP2 MSTORE POP POP DUP11 DUP3 PUSH1 0x80 ADD DUP2 DUP2 MSTORE POP POP DUP10 DUP3 PUSH1 0xC0 ADD SWAP1 PUSH20 0xFFFFFFFFFFFFFFFFFFFFFFFFFFFFFFFFFFFFFFFF AND SWAP1 DUP2 PUSH20 0xFFFFFFFFFFFFFFFFFFFFFFFFFFFFFFFFFFFFFFFF AND DUP2 MSTORE POP POP DUP9 DUP3 PUSH1 0xE0 ADD DUP2 DUP2 MSTORE POP POP DUP8 DUP3 PUSH2 0x100 ADD SWAP1 PUSH1 0xFF AND SWAP1 DUP2 PUSH1 0xFF AND DUP2 MSTORE POP POP DUP7 DUP3 PUSH2 0x120 ADD DUP2 DUP2 MSTORE POP POP DUP6 DUP3 PUSH2 0x140 ADD DUP2 DUP2 MSTORE POP POP DUP16 DUP3 PUSH1 0xA0 ADD SWAP1 PUSH20 0xFFFFFFFFFFFFFFFFFFFFFFFFFFFFFFFFFFFFFFFF AND SWAP1 DUP2 PUSH20 0xFFFFFFFFFFFFFFFFFFFFFFFFFFFFFFFFFFFFFFFF AND DUP2 MSTORE POP POP PUSH1 0x0 PUSH2 0x14A1 DUP4 PUSH1 0x0 ADD MLOAD DUP5 PUSH1 0x20 ADD MLOAD DUP6 PUSH1 0x40 ADD MLOAD DUP7 PUSH1 0x60 ADD MLOAD DUP8 PUSH1 0x80 ADD MLOAD DUP9 PUSH1 0xA0 ADD MLOAD DUP10 PUSH1 0xC0 ADD MLOAD DUP11 PUSH1 0xE0 ADD MLOAD PUSH1 0x3 SLOAD PUSH1 0x40 DUP1 MLOAD PUSH32 0xFF91E73EA790C2642A1CB1BF6C98E5211562AAE911FD8EACE405557CD7DC27A5 PUSH1 0x20 DUP1 DUP4 ADD SWAP2 SWAP1 SWAP2 MSTORE DUP2 DUP4 ADD SWAP12 SWAP1 SWAP12 MSTORE PUSH1 0x60 DUP2 ADD SWAP10 SWAP1 SWAP10 MSTORE PUSH20 0xFFFFFFFFFFFFFFFFFFFFFFFFFFFFFFFFFFFFFFFF SWAP8 DUP9 AND PUSH1 0x80 DUP11 ADD MSTORE SWAP6 DUP8 AND PUSH1 0xA0 DUP10 ADD MSTORE PUSH1 0xC0 DUP9 ADD SWAP5 SWAP1 SWAP5 MSTORE PUSH1 0xE0 DUP8 ADD SWAP4 SWAP1 SWAP4 MSTORE SWAP1 DUP5 AND PUSH2 0x100 DUP7 ADD MSTORE SWAP1 SWAP3 AND PUSH2 0x120 DUP5 ADD MSTORE PUSH2 0x140 DUP1 DUP5 ADD SWAP3 SWAP1 SWAP3 MSTORE DUP1 MLOAD DUP1 DUP5 SUB SWAP1 SWAP3 ADD DUP3 MSTORE PUSH2 0x160 SWAP1 SWAP3 ADD SWAP1 SWAP2 MSTORE DUP1 MLOAD SWAP2 ADD KECCAK256 SWAP1 JUMP JUMPDEST SWAP1 POP PUSH1 0x0 PUSH2 0x14C0 DUP3 DUP6 PUSH2 0x100 ADD MLOAD DUP7 PUSH2 0x120 ADD MLOAD DUP8 PUSH2 0x140 ADD MLOAD PUSH2 0x24BA JUMP JUMPDEST SWAP1 POP PUSH20 0xFFFFFFFFFFFFFFFFFFFFFFFFFFFFFFFFFFFFFFFF DUP2 AND PUSH2 0x1529 JUMPI PUSH32 0x5349474E41545552455F494E56414C4944000000000000000000000000000000 DUP6 DUP5 DUP2 MLOAD DUP2 LT PUSH2 0x1510 JUMPI PUSH2 0x1510 PUSH2 0x2B6A JUMP JUMPDEST PUSH1 0x20 SWAP1 DUP2 MUL SWAP2 SWAP1 SWAP2 ADD ADD MSTORE DUP3 PUSH2 0x1525 DUP2 PUSH2 0x2B99 JUMP JUMPDEST SWAP4 POP POP JUMPDEST TIMESTAMP DUP5 PUSH1 0x20 ADD MLOAD LT ISZERO PUSH2 0x1581 JUMPI PUSH32 0x4558504952595F50415353454400000000000000000000000000000000000000 DUP6 DUP5 DUP2 MLOAD DUP2 LT PUSH2 0x1568 JUMPI PUSH2 0x1568 PUSH2 0x2B6A JUMP JUMPDEST PUSH1 0x20 SWAP1 DUP2 MUL SWAP2 SWAP1 SWAP2 ADD ADD MSTORE DUP3 PUSH2 0x157D DUP2 PUSH2 0x2B99 JUMP JUMPDEST SWAP4 POP POP JUMPDEST DUP1 PUSH20 0xFFFFFFFFFFFFFFFFFFFFFFFFFFFFFFFFFFFFFFFF AND DUP5 PUSH1 0x40 ADD MLOAD PUSH20 0xFFFFFFFFFFFFFFFFFFFFFFFFFFFFFFFFFFFFFFFF AND EQ ISZERO DUP1 ISZERO PUSH2 0x15F1 JUMPI POP PUSH1 0x40 DUP1 DUP6 ADD MLOAD PUSH20 0xFFFFFFFFFFFFFFFFFFFFFFFFFFFFFFFFFFFFFFFF SWAP1 DUP2 AND PUSH1 0x0 SWAP1 DUP2 MSTORE PUSH1 0x2 PUSH1 0x20 MSTORE SWAP2 SWAP1 SWAP2 KECCAK256 SLOAD DUP2 AND SWAP1 DUP3 AND EQ ISZERO JUMPDEST ISZERO PUSH2 0x1646 JUMPI PUSH32 0x554E415554484F52495A45440000000000000000000000000000000000000000 DUP6 DUP5 DUP2 MLOAD DUP2 LT PUSH2 0x1629 JUMPI PUSH2 0x1629 PUSH2 0x2B6A JUMP JUMPDEST PUSH1 0x20 SWAP1 DUP2 MUL SWAP2 SWAP1 SWAP2 ADD ADD MSTORE DUP3 PUSH2 0x163E DUP2 PUSH2 0x2B99 JUMP JUMPDEST SWAP4 POP POP PUSH2 0x16A5 JUMP JUMPDEST PUSH2 0x1654 DUP2 DUP6 PUSH1 0x0 ADD MLOAD PUSH2 0x574 JUMP JUMPDEST ISZERO PUSH2 0x16A5 JUMPI PUSH32 0x4E4F4E43455F414C52454144595F555345440000000000000000000000000000 DUP6 DUP5 DUP2 MLOAD DUP2 LT PUSH2 0x168C JUMPI PUSH2 0x168C PUSH2 0x2B6A JUMP JUMPDEST PUSH1 0x20 SWAP1 DUP2 MUL SWAP2 SWAP1 SWAP2 ADD ADD MSTORE DUP3 PUSH2 0x16A1 DUP2 PUSH2 0x2B99 JUMP JUMPDEST SWAP4 POP POP JUMPDEST PUSH1 0xA0 DUP5 ADD MLOAD PUSH20 0xFFFFFFFFFFFFFFFFFFFFFFFFFFFFFFFFFFFFFFFF AND ISZERO PUSH2 0x18BF JUMPI PUSH1 0xC0 DUP5 ADD MLOAD PUSH1 0xA0 DUP6 ADD MLOAD PUSH1 0x40 MLOAD PUSH32 0x70A0823100000000000000000000000000000000000000000000000000000000 DUP2 MSTORE PUSH20 0xFFFFFFFFFFFFFFFFFFFFFFFFFFFFFFFFFFFFFFFF SWAP2 DUP3 AND PUSH1 0x4 DUP3 ADD MSTORE PUSH1 0x0 SWAP3 SWAP2 SWAP1 SWAP2 AND SWAP1 PUSH4 0x70A08231 SWAP1 PUSH1 0x24 ADD PUSH1 0x20 PUSH1 0x40 MLOAD DUP1 DUP4 SUB DUP2 DUP7 GAS STATICCALL ISZERO DUP1 ISZERO PUSH2 0x1740 JUMPI RETURNDATASIZE PUSH1 0x0 DUP1 RETURNDATACOPY RETURNDATASIZE PUSH1 0x0 REVERT JUMPDEST POP POP POP POP PUSH1 0x40 MLOAD RETURNDATASIZE PUSH1 0x1F NOT PUSH1 0x1F DUP3 ADD AND DUP3 ADD DUP1 PUSH1 0x40 MSTORE POP DUP2 ADD SWAP1 PUSH2 0x1764 SWAP2 SWAP1 PUSH2 0x2D27 JUMP JUMPDEST PUSH1 0xC0 DUP7 ADD MLOAD PUSH1 0xA0 DUP8 ADD MLOAD PUSH1 0x40 MLOAD PUSH32 0xDD62ED3E00000000000000000000000000000000000000000000000000000000 DUP2 MSTORE PUSH20 0xFFFFFFFFFFFFFFFFFFFFFFFFFFFFFFFFFFFFFFFF SWAP2 DUP3 AND PUSH1 0x4 DUP3 ADD MSTORE ADDRESS PUSH1 0x24 DUP3 ADD MSTORE SWAP3 SWAP4 POP PUSH1 0x0 SWAP3 SWAP2 AND SWAP1 PUSH4 0xDD62ED3E SWAP1 PUSH1 0x44 ADD PUSH1 0x20 PUSH1 0x40 MLOAD DUP1 DUP4 SUB DUP2 DUP7 GAS STATICCALL ISZERO DUP1 ISZERO PUSH2 0x17E6 JUMPI RETURNDATASIZE PUSH1 0x0 DUP1 RETURNDATACOPY RETURNDATASIZE PUSH1 0x0 REVERT JUMPDEST POP POP POP POP PUSH1 0x40 MLOAD RETURNDATASIZE PUSH1 0x1F NOT PUSH1 0x1F DUP3 ADD AND DUP3 ADD DUP1 PUSH1 0x40 MSTORE POP DUP2 ADD SWAP1 PUSH2 0x180A SWAP2 SWAP1 PUSH2 0x2D27 JUMP JUMPDEST SWAP1 POP DUP6 PUSH1 0xE0 ADD MLOAD DUP2 LT ISZERO PUSH2 0x1864 JUMPI PUSH32 0x53454E4445525F414C4C4F57414E43455F4C4F57000000000000000000000000 DUP8 DUP7 DUP2 MLOAD DUP2 LT PUSH2 0x184B JUMPI PUSH2 0x184B PUSH2 0x2B6A JUMP JUMPDEST PUSH1 0x20 SWAP1 DUP2 MUL SWAP2 SWAP1 SWAP2 ADD ADD MSTORE DUP5 PUSH2 0x1860 DUP2 PUSH2 0x2B99 JUMP JUMPDEST SWAP6 POP POP JUMPDEST DUP6 PUSH1 0xE0 ADD MLOAD DUP3 LT ISZERO PUSH2 0x18BC JUMPI PUSH32 0x53454E4445525F42414C414E43455F4C4F570000000000000000000000000000 DUP8 DUP7 DUP2 MLOAD DUP2 LT PUSH2 0x18A3 JUMPI PUSH2 0x18A3 PUSH2 0x2B6A JUMP JUMPDEST PUSH1 0x20 SWAP1 DUP2 MUL SWAP2 SWAP1 SWAP2 ADD ADD MSTORE DUP5 PUSH2 0x18B8 DUP2 PUSH2 0x2B99 JUMP JUMPDEST SWAP6 POP POP JUMPDEST POP POP JUMPDEST PUSH1 0x60 DUP5 ADD MLOAD PUSH1 0x40 DUP1 DUP7 ADD MLOAD SWAP1 MLOAD PUSH32 0x70A0823100000000000000000000000000000000000000000000000000000000 DUP2 MSTORE PUSH20 0xFFFFFFFFFFFFFFFFFFFFFFFFFFFFFFFFFFFFFFFF SWAP2 DUP3 AND PUSH1 0x4 DUP3 ADD MSTORE PUSH1 0x0 SWAP3 SWAP2 SWAP1 SWAP2 AND SWAP1 PUSH4 0x70A08231 SWAP1 PUSH1 0x24 ADD PUSH1 0x20 PUSH1 0x40 MLOAD DUP1 DUP4 SUB DUP2 DUP7 GAS STATICCALL ISZERO DUP1 ISZERO PUSH2 0x193A JUMPI RETURNDATASIZE PUSH1 0x0 DUP1 RETURNDATACOPY RETURNDATASIZE PUSH1 0x0 REVERT JUMPDEST POP POP POP POP PUSH1 0x40 MLOAD RETURNDATASIZE PUSH1 0x1F NOT PUSH1 0x1F DUP3 ADD AND DUP3 ADD DUP1 PUSH1 0x40 MSTORE POP DUP2 ADD SWAP1 PUSH2 0x195E SWAP2 SWAP1 PUSH2 0x2D27 JUMP JUMPDEST PUSH1 0x60 DUP7 ADD MLOAD PUSH1 0x40 DUP1 DUP9 ADD MLOAD SWAP1 MLOAD PUSH32 0xDD62ED3E00000000000000000000000000000000000000000000000000000000 DUP2 MSTORE PUSH20 0xFFFFFFFFFFFFFFFFFFFFFFFFFFFFFFFFFFFFFFFF SWAP2 DUP3 AND PUSH1 0x4 DUP3 ADD MSTORE ADDRESS PUSH1 0x24 DUP3 ADD MSTORE SWAP3 SWAP4 POP PUSH1 0x0 SWAP3 SWAP2 AND SWAP1 PUSH4 0xDD62ED3E SWAP1 PUSH1 0x44 ADD PUSH1 0x20 PUSH1 0x40 MLOAD DUP1 DUP4 SUB DUP2 DUP7 GAS STATICCALL ISZERO DUP1 ISZERO PUSH2 0x19E0 JUMPI RETURNDATASIZE PUSH1 0x0 DUP1 RETURNDATACOPY RETURNDATASIZE PUSH1 0x0 REVERT JUMPDEST POP POP POP POP PUSH1 0x40 MLOAD RETURNDATASIZE PUSH1 0x1F NOT PUSH1 0x1F DUP3 ADD AND DUP3 ADD DUP1 PUSH1 0x40 MSTORE POP DUP2 ADD SWAP1 PUSH2 0x1A04 SWAP2 SWAP1 PUSH2 0x2D27 JUMP JUMPDEST SWAP1 POP PUSH1 0x0 PUSH2 0x2710 PUSH1 0x3 SLOAD DUP9 PUSH1 0x80 ADD MLOAD PUSH2 0x1A1D SWAP2 SWAP1 PUSH2 0x2BD1 JUMP JUMPDEST PUSH2 0x1A27 SWAP2 SWAP1 PUSH2 0x2B42 JUMP JUMPDEST SWAP1 POP DUP1 DUP8 PUSH1 0x80 ADD MLOAD PUSH2 0x1A39 SWAP2 SWAP1 PUSH2 0x2D14 JUMP JUMPDEST DUP3 LT ISZERO PUSH2 0x1A8C JUMPI PUSH32 0x5349474E45525F414C4C4F57414E43455F4C4F57000000000000000000000000 DUP9 DUP8 DUP2 MLOAD DUP2 LT PUSH2 0x1A73 JUMPI PUSH2 0x1A73 PUSH2 0x2B6A JUMP JUMPDEST PUSH1 0x20 SWAP1 DUP2 MUL SWAP2 SWAP1 SWAP2 ADD ADD MSTORE DUP6 PUSH2 0x1A88 DUP2 PUSH2 0x2B99 JUMP JUMPDEST SWAP7 POP POP JUMPDEST DUP1 DUP8 PUSH1 0x80 ADD MLOAD PUSH2 0x1A9C SWAP2 SWAP1 PUSH2 0x2D14 JUMP JUMPDEST DUP4 LT ISZERO PUSH2 0x1AEF JUMPI PUSH32 0x5349474E45525F42414C414E43455F4C4F570000000000000000000000000000 DUP9 DUP8 DUP2 MLOAD DUP2 LT PUSH2 0x1AD6 JUMPI PUSH2 0x1AD6 PUSH2 0x2B6A JUMP JUMPDEST PUSH1 0x20 SWAP1 DUP2 MUL SWAP2 SWAP1 SWAP2 ADD ADD MSTORE DUP6 PUSH2 0x1AEB DUP2 PUSH2 0x2B99 JUMP JUMPDEST SWAP7 POP POP JUMPDEST POP SWAP4 SWAP8 POP SWAP5 SWAP6 POP POP POP POP POP POP SWAP12 POP SWAP12 SWAP10 POP POP POP POP POP POP POP POP POP POP JUMP JUMPDEST PUSH2 0x1B13 PUSH2 0x23C4 JUMP JUMPDEST PUSH2 0x2710 DUP2 LT PUSH2 0x1B7E JUMPI PUSH1 0x40 MLOAD PUSH32 0x8C379A000000000000000000000000000000000000000000000000000000000 DUP2 MSTORE PUSH1 0x20 PUSH1 0x4 DUP3 ADD MSTORE PUSH1 0x11 PUSH1 0x24 DUP3 ADD MSTORE PUSH32 0x494E56414C49445F4645455F4C49474854000000000000000000000000000000 PUSH1 0x44 DUP3 ADD MSTORE PUSH1 0x64 ADD PUSH2 0x7C2 JUMP JUMPDEST PUSH1 0x4 DUP2 SWAP1 SSTORE PUSH1 0x40 MLOAD DUP2 DUP2 MSTORE PUSH32 0x312CC1A9B7287129A22395B9572A3C9ED09CE456F02B519EFB34E12BB429EED0 SWAP1 PUSH1 0x20 ADD PUSH2 0xE98 JUMP JUMPDEST PUSH2 0x1BBB PUSH2 0x23C4 JUMP JUMPDEST PUSH1 0x64 DUP2 GT ISZERO PUSH2 0x1C26 JUMPI PUSH1 0x40 MLOAD PUSH32 0x8C379A000000000000000000000000000000000000000000000000000000000 DUP2 MSTORE PUSH1 0x20 PUSH1 0x4 DUP3 ADD MSTORE PUSH1 0xC PUSH1 0x24 DUP3 ADD MSTORE PUSH32 0x4D41585F544F4F5F484947480000000000000000000000000000000000000000 PUSH1 0x44 DUP3 ADD MSTORE PUSH1 0x64 ADD PUSH2 0x7C2 JUMP JUMPDEST PUSH1 0x7 DUP2 SWAP1 SSTORE PUSH1 0x40 MLOAD DUP2 DUP2 MSTORE PUSH32 0x8F4773D92EA1B8FF6E9EA92363A816F089D2042092C31BB82607707D6699B0B3 SWAP1 PUSH1 0x20 ADD PUSH2 0xE98 JUMP JUMPDEST PUSH2 0x1C63 PUSH2 0x23C4 JUMP JUMPDEST PUSH1 0x4D DUP2 GT ISZERO PUSH2 0x1CCE JUMPI PUSH1 0x40 MLOAD PUSH32 0x8C379A000000000000000000000000000000000000000000000000000000000 DUP2 MSTORE PUSH1 0x20 PUSH1 0x4 DUP3 ADD MSTORE PUSH1 0xE PUSH1 0x24 DUP3 ADD MSTORE PUSH32 0x5343414C455F544F4F5F48494748000000000000000000000000000000000000 PUSH1 0x44 DUP3 ADD MSTORE PUSH1 0x64 ADD PUSH2 0x7C2 JUMP JUMPDEST PUSH1 0x6 DUP2 SWAP1 SSTORE PUSH1 0x40 MLOAD DUP2 DUP2 MSTORE PUSH32 0x1D5D03FB73185766E93E2C8300B4FC67782909A607C987C6F76F35C84E2A325 SWAP1 PUSH1 0x20 ADD PUSH2 0xE98 JUMP JUMPDEST PUSH2 0x1D0B PUSH2 0x23C4 JUMP JUMPDEST PUSH20 0xFFFFFFFFFFFFFFFFFFFFFFFFFFFFFFFFFFFFFFFF DUP2 AND PUSH2 0x1DAE JUMPI PUSH1 0x40 MLOAD PUSH32 0x8C379A000000000000000000000000000000000000000000000000000000000 DUP2 MSTORE PUSH1 0x20 PUSH1 0x4 DUP3 ADD MSTORE PUSH1 0x26 PUSH1 0x24 DUP3 ADD MSTORE PUSH32 0x4F776E61626C653A206E6577206F776E657220697320746865207A65726F2061 PUSH1 0x44 DUP3 ADD MSTORE PUSH32 0x6464726573730000000000000000000000000000000000000000000000000000 PUSH1 0x64 DUP3 ADD MSTORE PUSH1 0x84 ADD PUSH2 0x7C2 JUMP JUMPDEST PUSH2 0x1DB7 DUP2 PUSH2 0x2445 JUMP JUMPDEST POP JUMP JUMPDEST PUSH1 0x0 DUP1 PUSH2 0x1DC9 PUSH2 0x100 DUP5 PUSH2 0x2B42 JUMP JUMPDEST SWAP1 POP PUSH1 0x0 PUSH2 0x1DD9 PUSH2 0x100 DUP6 PUSH2 0x2B56 JUMP JUMPDEST PUSH20 0xFFFFFFFFFFFFFFFFFFFFFFFFFFFFFFFFFFFFFFFF DUP7 AND PUSH1 0x0 SWAP1 DUP2 MSTORE PUSH1 0x1 PUSH1 0x20 DUP2 DUP2 MSTORE PUSH1 0x40 DUP1 DUP5 KECCAK256 DUP8 DUP6 MSTORE SWAP1 SWAP2 MSTORE SWAP1 SWAP2 KECCAK256 SLOAD SWAP2 SWAP3 POP DUP2 DUP4 SHR DUP2 AND SWAP1 SUB PUSH2 0x1E25 JUMPI PUSH1 0x0 SWAP4 POP POP POP POP PUSH2 0x5D0 JUMP JUMPDEST PUSH20 0xFFFFFFFFFFFFFFFFFFFFFFFFFFFFFFFFFFFFFFFF DUP7 AND PUSH1 0x0 SWAP1 DUP2 MSTORE PUSH1 0x1 PUSH1 0x20 DUP2 DUP2 MSTORE PUSH1 0x40 DUP1 DUP5 KECCAK256 SWAP7 DUP5 MSTORE SWAP6 SWAP1 MSTORE SWAP4 SWAP1 KECCAK256 SWAP2 DUP4 SWAP1 SHL OR SWAP1 SSTORE SWAP1 POP SWAP3 SWAP2 POP POP JUMP JUMPDEST CHAINID PUSH32 0x0 EQ PUSH2 0x1EEE JUMPI PUSH1 0x40 MLOAD PUSH32 0x8C379A000000000000000000000000000000000000000000000000000000000 DUP2 MSTORE PUSH1 0x20 PUSH1 0x4 DUP3 ADD MSTORE PUSH1 0x10 PUSH1 0x24 DUP3 ADD MSTORE PUSH32 0x434841494E5F49445F4348414E47454400000000000000000000000000000000 PUSH1 0x44 DUP3 ADD MSTORE PUSH1 0x64 ADD PUSH2 0x7C2 JUMP JUMPDEST TIMESTAMP DUP11 GT PUSH2 0x1F57 JUMPI PUSH1 0x40 MLOAD PUSH32 0x8C379A000000000000000000000000000000000000000000000000000000000 DUP2 MSTORE PUSH1 0x20 PUSH1 0x4 DUP3 ADD MSTORE PUSH1 0xD PUSH1 0x24 DUP3 ADD MSTORE PUSH32 0x4558504952595F50415353454400000000000000000000000000000000000000 PUSH1 0x44 DUP3 ADD MSTORE PUSH1 0x64 ADD PUSH2 0x7C2 JUMP JUMPDEST PUSH1 0x3 SLOAD PUSH1 0x40 DUP1 MLOAD PUSH32 0xFF91E73EA790C2642A1CB1BF6C98E5211562AAE911FD8EACE405557CD7DC27A5 PUSH1 0x20 DUP1 DUP4 ADD SWAP2 SWAP1 SWAP2 MSTORE DUP2 DUP4 ADD DUP16 SWAP1 MSTORE PUSH1 0x60 DUP3 ADD DUP15 SWAP1 MSTORE PUSH20 0xFFFFFFFFFFFFFFFFFFFFFFFFFFFFFFFFFFFFFFFF DUP1 DUP15 AND PUSH1 0x80 DUP5 ADD MSTORE DUP1 DUP14 AND PUSH1 0xA0 DUP5 ADD MSTORE PUSH1 0xC0 DUP4 ADD DUP13 SWAP1 MSTORE PUSH1 0xE0 DUP4 ADD SWAP5 SWAP1 SWAP5 MSTORE DUP4 DUP11 AND PUSH2 0x100 DUP4 ADD MSTORE SWAP3 DUP9 AND PUSH2 0x120 DUP3 ADD MSTORE PUSH2 0x140 DUP1 DUP3 ADD DUP9 SWAP1 MSTORE DUP3 MLOAD DUP1 DUP4 SUB SWAP1 SWAP2 ADD DUP2 MSTORE PUSH2 0x160 SWAP1 SWAP2 ADD SWAP1 SWAP2 MSTORE DUP1 MLOAD SWAP2 ADD KECCAK256 PUSH1 0x0 PUSH2 0x200A DUP3 DUP7 DUP7 DUP7 PUSH2 0x24BA JUMP JUMPDEST SWAP1 POP PUSH20 0xFFFFFFFFFFFFFFFFFFFFFFFFFFFFFFFFFFFFFFFF DUP2 AND PUSH2 0x2089 JUMPI PUSH1 0x40 MLOAD PUSH32 0x8C379A000000000000000000000000000000000000000000000000000000000 DUP2 MSTORE PUSH1 0x20 PUSH1 0x4 DUP3 ADD MSTORE PUSH1 0x11 PUSH1 0x24 DUP3 ADD MSTORE PUSH32 0x5349474E41545552455F494E56414C4944000000000000000000000000000000 PUSH1 0x44 DUP3 ADD MSTORE PUSH1 0x64 ADD PUSH2 0x7C2 JUMP JUMPDEST PUSH2 0x2093 DUP2 DUP15 PUSH2 0x1DBA JUMP JUMPDEST PUSH2 0x20F9 JUMPI PUSH1 0x40 MLOAD PUSH32 0x8C379A000000000000000000000000000000000000000000000000000000000 DUP2 MSTORE PUSH1 0x20 PUSH1 0x4 DUP3 ADD MSTORE PUSH1 0x12 PUSH1 0x24 DUP3 ADD MSTORE PUSH32 0x4E4F4E43455F414C52454144595F555345440000000000000000000000000000 PUSH1 0x44 DUP3 ADD MSTORE PUSH1 0x64 ADD PUSH2 0x7C2 JUMP JUMPDEST DUP1 PUSH20 0xFFFFFFFFFFFFFFFFFFFFFFFFFFFFFFFFFFFFFFFF AND DUP12 PUSH20 0xFFFFFFFFFFFFFFFFFFFFFFFFFFFFFFFFFFFFFFFF AND EQ PUSH2 0x21F1 JUMPI PUSH20 0xFFFFFFFFFFFFFFFFFFFFFFFFFFFFFFFFFFFFFFFF DUP12 DUP2 AND PUSH1 0x0 SWAP1 DUP2 MSTORE PUSH1 0x2 PUSH1 0x20 MSTORE PUSH1 0x40 SWAP1 KECCAK256 SLOAD AND ISZERO DUP1 ISZERO SWAP1 PUSH2 0x218B JUMPI POP PUSH20 0xFFFFFFFFFFFFFFFFFFFFFFFFFFFFFFFFFFFFFFFF DUP12 DUP2 AND PUSH1 0x0 SWAP1 DUP2 MSTORE PUSH1 0x2 PUSH1 0x20 MSTORE PUSH1 0x40 SWAP1 KECCAK256 SLOAD DUP2 AND SWAP1 DUP3 AND EQ JUMPDEST PUSH2 0x21F1 JUMPI PUSH1 0x40 MLOAD PUSH32 0x8C379A000000000000000000000000000000000000000000000000000000000 DUP2 MSTORE PUSH1 0x20 PUSH1 0x4 DUP3 ADD MSTORE PUSH1 0xC PUSH1 0x24 DUP3 ADD MSTORE PUSH32 0x554E415554484F52495A45440000000000000000000000000000000000000000 PUSH1 0x44 DUP3 ADD MSTORE PUSH1 0x64 ADD PUSH2 0x7C2 JUMP JUMPDEST POP POP POP POP POP POP POP POP POP POP POP POP POP JUMP JUMPDEST PUSH1 0x40 DUP1 MLOAD PUSH20 0xFFFFFFFFFFFFFFFFFFFFFFFFFFFFFFFFFFFFFFFF DUP6 DUP2 AND PUSH1 0x24 DUP4 ADD MSTORE DUP5 AND PUSH1 0x44 DUP3 ADD MSTORE PUSH1 0x64 DUP1 DUP3 ADD DUP5 SWAP1 MSTORE DUP3 MLOAD DUP1 DUP4 SUB SWAP1 SWAP2 ADD DUP2 MSTORE PUSH1 0x84 SWAP1 SWAP2 ADD SWAP1 SWAP2 MSTORE PUSH1 0x20 DUP2 ADD DUP1 MLOAD PUSH28 0xFFFFFFFFFFFFFFFFFFFFFFFFFFFFFFFFFFFFFFFFFFFFFFFFFFFFFFFF AND PUSH32 0x23B872DD00000000000000000000000000000000000000000000000000000000 OR SWAP1 MSTORE PUSH2 0x2295 SWAP1 DUP6 SWAP1 PUSH2 0x25C7 JUMP JUMPDEST POP POP POP POP JUMP JUMPDEST PUSH1 0x0 PUSH2 0x2710 PUSH1 0x3 SLOAD DUP4 PUSH2 0x22AE SWAP2 SWAP1 PUSH2 0x2BD1 JUMP JUMPDEST PUSH2 0x22B8 SWAP2 SWAP1 PUSH2 0x2B42 JUMP JUMPDEST SWAP1 POP DUP1 ISZERO PUSH2 0x2295 JUMPI PUSH1 0x8 SLOAD PUSH1 0x40 MLOAD PUSH32 0x70A0823100000000000000000000000000000000000000000000000000000000 DUP2 MSTORE CALLER PUSH1 0x4 DUP3 ADD MSTORE PUSH1 0x0 SWAP2 PUSH2 0x231D SWAP2 PUSH20 0xFFFFFFFFFFFFFFFFFFFFFFFFFFFFFFFFFFFFFFFF SWAP1 SWAP2 AND SWAP1 PUSH4 0x70A08231 SWAP1 PUSH1 0x24 ADD PUSH2 0xD7D JUMP JUMPDEST SWAP1 POP DUP1 ISZERO PUSH2 0x2394 JUMPI PUSH2 0x2347 PUSH20 0xFFFFFFFFFFFFFFFFFFFFFFFFFFFFFFFFFFFFFFFF DUP7 AND DUP6 CALLER DUP5 PUSH2 0x2200 JUMP JUMPDEST PUSH1 0x5 SLOAD PUSH2 0x238F SWAP1 DUP6 SWAP1 PUSH20 0xFFFFFFFFFFFFFFFFFFFFFFFFFFFFFFFFFFFFFFFF AND PUSH2 0x2370 DUP5 DUP7 PUSH2 0x2D40 JUMP JUMPDEST PUSH20 0xFFFFFFFFFFFFFFFFFFFFFFFFFFFFFFFFFFFFFFFF DUP10 AND SWAP3 SWAP2 SWAP1 PUSH2 0x2200 JUMP JUMPDEST PUSH2 0x23BD JUMP JUMPDEST PUSH1 0x5 SLOAD PUSH2 0x23BD SWAP1 PUSH20 0xFFFFFFFFFFFFFFFFFFFFFFFFFFFFFFFFFFFFFFFF DUP8 DUP2 AND SWAP2 DUP8 SWAP2 AND DUP6 PUSH2 0x2200 JUMP JUMPDEST POP POP POP POP POP JUMP JUMPDEST PUSH1 0x0 SLOAD PUSH20 0xFFFFFFFFFFFFFFFFFFFFFFFFFFFFFFFFFFFFFFFF AND CALLER EQ PUSH2 0xDF2 JUMPI PUSH1 0x40 MLOAD PUSH32 0x8C379A000000000000000000000000000000000000000000000000000000000 DUP2 MSTORE PUSH1 0x20 PUSH1 0x4 DUP3 ADD DUP2 SWAP1 MSTORE PUSH1 0x24 DUP3 ADD MSTORE PUSH32 0x4F776E61626C653A2063616C6C6572206973206E6F7420746865206F776E6572 PUSH1 0x44 DUP3 ADD MSTORE PUSH1 0x64 ADD PUSH2 0x7C2 JUMP JUMPDEST PUSH1 0x0 DUP1 SLOAD PUSH20 0xFFFFFFFFFFFFFFFFFFFFFFFFFFFFFFFFFFFFFFFF DUP4 DUP2 AND PUSH32 0xFFFFFFFFFFFFFFFFFFFFFFFF0000000000000000000000000000000000000000 DUP4 AND DUP2 OR DUP5 SSTORE PUSH1 0x40 MLOAD SWAP2 SWAP1 SWAP3 AND SWAP3 DUP4 SWAP2 PUSH32 0x8BE0079C531659141344CD1FD0A4F28419497F9722A3DAAFE3B4186F6B6457E0 SWAP2 SWAP1 LOG3 POP POP JUMP JUMPDEST PUSH1 0x40 MLOAD PUSH32 0x1901000000000000000000000000000000000000000000000000000000000000 PUSH1 0x20 DUP3 ADD MSTORE PUSH32 0x0 PUSH1 0x22 DUP3 ADD MSTORE PUSH1 0x42 DUP2 ADD DUP6 SWAP1 MSTORE PUSH1 0x0 SWAP1 PUSH1 0x1 SWAP1 PUSH1 0x62 ADD PUSH1 0x40 DUP1 MLOAD PUSH32 0xFFFFFFFFFFFFFFFFFFFFFFFFFFFFFFFFFFFFFFFFFFFFFFFFFFFFFFFFFFFFFFE0 DUP2 DUP5 SUB ADD DUP2 MSTORE DUP3 DUP3 MSTORE DUP1 MLOAD PUSH1 0x20 SWAP2 DUP3 ADD KECCAK256 PUSH1 0x0 DUP5 MSTORE SWAP1 DUP4 ADD DUP1 DUP4 MSTORE MSTORE PUSH1 0xFF DUP8 AND SWAP1 DUP3 ADD MSTORE PUSH1 0x60 DUP2 ADD DUP6 SWAP1 MSTORE PUSH1 0x80 DUP2 ADD DUP5 SWAP1 MSTORE PUSH1 0xA0 ADD PUSH1 0x20 PUSH1 0x40 MLOAD PUSH1 0x20 DUP2 SUB SWAP1 DUP1 DUP5 SUB SWAP1 DUP6 GAS STATICCALL ISZERO DUP1 ISZERO PUSH2 0x2595 JUMPI RETURNDATASIZE PUSH1 0x0 DUP1 RETURNDATACOPY RETURNDATASIZE PUSH1 0x0 REVERT JUMPDEST POP POP PUSH1 0x40 MLOAD PUSH32 0xFFFFFFFFFFFFFFFFFFFFFFFFFFFFFFFFFFFFFFFFFFFFFFFFFFFFFFFFFFFFFFE0 ADD MLOAD SWAP7 SWAP6 POP POP POP POP POP POP JUMP JUMPDEST PUSH1 0x0 PUSH2 0x2629 DUP3 PUSH1 0x40 MLOAD DUP1 PUSH1 0x40 ADD PUSH1 0x40 MSTORE DUP1 PUSH1 0x20 DUP2 MSTORE PUSH1 0x20 ADD PUSH32 0x5361666545524332303A206C6F772D6C6576656C2063616C6C206661696C6564 DUP2 MSTORE POP DUP6 PUSH20 0xFFFFFFFFFFFFFFFFFFFFFFFFFFFFFFFFFFFFFFFF AND PUSH2 0x26D3 SWAP1 SWAP3 SWAP2 SWAP1 PUSH4 0xFFFFFFFF AND JUMP JUMPDEST DUP1 MLOAD SWAP1 SWAP2 POP ISZERO PUSH2 0x64E JUMPI DUP1 DUP1 PUSH1 0x20 ADD SWAP1 MLOAD DUP2 ADD SWAP1 PUSH2 0x2647 SWAP2 SWAP1 PUSH2 0x2D53 JUMP JUMPDEST PUSH2 0x64E JUMPI PUSH1 0x40 MLOAD PUSH32 0x8C379A000000000000000000000000000000000000000000000000000000000 DUP2 MSTORE PUSH1 0x20 PUSH1 0x4 DUP3 ADD MSTORE PUSH1 0x2A PUSH1 0x24 DUP3 ADD MSTORE PUSH32 0x5361666545524332303A204552433230206F7065726174696F6E20646964206E PUSH1 0x44 DUP3 ADD MSTORE PUSH32 0x6F74207375636365656400000000000000000000000000000000000000000000 PUSH1 0x64 DUP3 ADD MSTORE PUSH1 0x84 ADD PUSH2 0x7C2 JUMP JUMPDEST PUSH1 0x60 PUSH2 0xCF5 DUP5 DUP5 PUSH1 0x0 DUP6 DUP6 PUSH20 0xFFFFFFFFFFFFFFFFFFFFFFFFFFFFFFFFFFFFFFFF DUP6 AND EXTCODESIZE PUSH2 0x275C JUMPI PUSH1 0x40 MLOAD PUSH32 0x8C379A000000000000000000000000000000000000000000000000000000000 DUP2 MSTORE PUSH1 0x20 PUSH1 0x4 DUP3 ADD MSTORE PUSH1 0x1D PUSH1 0x24 DUP3 ADD MSTORE PUSH32 0x416464726573733A2063616C6C20746F206E6F6E2D636F6E7472616374000000 PUSH1 0x44 DUP3 ADD MSTORE PUSH1 0x64 ADD PUSH2 0x7C2 JUMP JUMPDEST PUSH1 0x0 DUP1 DUP7 PUSH20 0xFFFFFFFFFFFFFFFFFFFFFFFFFFFFFFFFFFFFFFFF AND DUP6 DUP8 PUSH1 0x40 MLOAD PUSH2 0x2785 SWAP2 SWAP1 PUSH2 0x2D99 JUMP JUMPDEST PUSH1 0x0 PUSH1 0x40 MLOAD DUP1 DUP4 SUB DUP2 DUP6 DUP8 GAS CALL SWAP3 POP POP POP RETURNDATASIZE DUP1 PUSH1 0x0 DUP2 EQ PUSH2 0x27C2 JUMPI PUSH1 0x40 MLOAD SWAP2 POP PUSH1 0x1F NOT PUSH1 0x3F RETURNDATASIZE ADD AND DUP3 ADD PUSH1 0x40 MSTORE RETURNDATASIZE DUP3 MSTORE RETURNDATASIZE PUSH1 0x0 PUSH1 0x20 DUP5 ADD RETURNDATACOPY PUSH2 0x27C7 JUMP JUMPDEST PUSH1 0x60 SWAP2 POP JUMPDEST POP SWAP2 POP SWAP2 POP PUSH2 0x27D7 DUP3 DUP3 DUP7 PUSH2 0x27E2 JUMP JUMPDEST SWAP8 SWAP7 POP POP POP POP POP POP POP JUMP JUMPDEST PUSH1 0x60 DUP4 ISZERO PUSH2 0x27F1 JUMPI POP DUP2 PUSH2 0xDD9 JUMP JUMPDEST DUP3 MLOAD ISZERO PUSH2 0x2801 JUMPI DUP3 MLOAD DUP1 DUP5 PUSH1 0x20 ADD REVERT JUMPDEST DUP2 PUSH1 0x40 MLOAD PUSH32 0x8C379A000000000000000000000000000000000000000000000000000000000 DUP2 MSTORE PUSH1 0x4 ADD PUSH2 0x7C2 SWAP2 SWAP1 PUSH2 0x2DB5 JUMP JUMPDEST DUP1 CALLDATALOAD PUSH20 0xFFFFFFFFFFFFFFFFFFFFFFFFFFFFFFFFFFFFFFFF DUP2 AND DUP2 EQ PUSH2 0x2859 JUMPI PUSH1 0x0 DUP1 REVERT JUMPDEST SWAP2 SWAP1 POP JUMP JUMPDEST PUSH1 0x0 DUP1 PUSH1 0x40 DUP4 DUP6 SUB SLT ISZERO PUSH2 0x2871 JUMPI PUSH1 0x0 DUP1 REVERT JUMPDEST PUSH2 0x287A DUP4 PUSH2 0x2835 JUMP JUMPDEST SWAP5 PUSH1 0x20 SWAP4 SWAP1 SWAP4 ADD CALLDATALOAD SWAP4 POP POP POP JUMP JUMPDEST PUSH1 0x0 DUP1 PUSH1 0x20 DUP4 DUP6 SUB SLT ISZERO PUSH2 0x289B JUMPI PUSH1 0x0 DUP1 REVERT JUMPDEST DUP3 CALLDATALOAD PUSH8 0xFFFFFFFFFFFFFFFF DUP1 DUP3 GT ISZERO PUSH2 0x28B3 JUMPI PUSH1 0x0 DUP1 REVERT JUMPDEST DUP2 DUP6 ADD SWAP2 POP DUP6 PUSH1 0x1F DUP4 ADD SLT PUSH2 0x28C7 JUMPI PUSH1 0x0 DUP1 REVERT JUMPDEST DUP2 CALLDATALOAD DUP2 DUP2 GT ISZERO PUSH2 0x28D6 JUMPI PUSH1 0x0 DUP1 REVERT JUMPDEST DUP7 PUSH1 0x20 DUP3 PUSH1 0x5 SHL DUP6 ADD ADD GT ISZERO PUSH2 0x28EB JUMPI PUSH1 0x0 DUP1 REVERT JUMPDEST PUSH1 0x20 SWAP3 SWAP1 SWAP3 ADD SWAP7 SWAP2 SWAP6 POP SWAP1 SWAP4 POP POP POP POP JUMP JUMPDEST DUP1 CALLDATALOAD PUSH1 0xFF DUP2 AND DUP2 EQ PUSH2 0x2859 JUMPI PUSH1 0x0 DUP1 REVERT JUMPDEST PUSH1 0x0 DUP1 PUSH1 0x0 DUP1 PUSH1 0x0 DUP1 PUSH1 0x0 DUP1 PUSH1 0x0 DUP1 PUSH1 0x0 PUSH2 0x160 DUP13 DUP15 SUB SLT ISZERO PUSH2 0x2930 JUMPI PUSH1 0x0 DUP1 REVERT JUMPDEST PUSH2 0x2939 DUP13 PUSH2 0x2835 JUMP JUMPDEST SWAP11 POP PUSH1 0x20 DUP13 ADD CALLDATALOAD SWAP10 POP PUSH1 0x40 DUP13 ADD CALLDATALOAD SWAP9 POP PUSH2 0x2955 PUSH1 0x60 DUP14 ADD PUSH2 0x2835 JUMP JUMPDEST SWAP8 POP PUSH2 0x2963 PUSH1 0x80 DUP14 ADD PUSH2 0x2835 JUMP JUMPDEST SWAP7 POP PUSH1 0xA0 DUP13 ADD CALLDATALOAD SWAP6 POP PUSH2 0x2978 PUSH1 0xC0 DUP14 ADD PUSH2 0x2835 JUMP JUMPDEST SWAP5 POP PUSH1 0xE0 DUP13 ADD CALLDATALOAD SWAP4 POP PUSH2 0x298E PUSH2 0x100 DUP14 ADD PUSH2 0x28FD JUMP JUMPDEST SWAP3 POP PUSH2 0x120 DUP13 ADD CALLDATALOAD SWAP2 POP PUSH2 0x140 DUP13 ADD CALLDATALOAD SWAP1 POP SWAP3 SWAP6 SWAP9 SWAP12 POP SWAP3 SWAP6 SWAP9 SWAP12 SWAP1 SWAP4 SWAP7 SWAP10 POP JUMP JUMPDEST PUSH1 0x0 DUP1 PUSH1 0x0 DUP1 PUSH1 0x0 DUP1 PUSH1 0x0 DUP1 PUSH1 0x0 DUP1 PUSH2 0x140 DUP12 DUP14 SUB SLT ISZERO PUSH2 0x29D0 JUMPI PUSH1 0x0 DUP1 REVERT JUMPDEST DUP11 CALLDATALOAD SWAP10 POP PUSH1 0x20 DUP12 ADD CALLDATALOAD SWAP9 POP PUSH2 0x29E7 PUSH1 0x40 DUP13 ADD PUSH2 0x2835 JUMP JUMPDEST SWAP8 POP PUSH2 0x29F5 PUSH1 0x60 DUP13 ADD PUSH2 0x2835 JUMP JUMPDEST SWAP7 POP PUSH1 0x80 DUP12 ADD CALLDATALOAD SWAP6 POP PUSH2 0x2A0A PUSH1 0xA0 DUP13 ADD PUSH2 0x2835 JUMP JUMPDEST SWAP5 POP PUSH1 0xC0 DUP12 ADD CALLDATALOAD SWAP4 POP PUSH2 0x2A1F PUSH1 0xE0 DUP13 ADD PUSH2 0x28FD JUMP JUMPDEST SWAP3 POP PUSH2 0x100 DUP12 ADD CALLDATALOAD SWAP2 POP PUSH2 0x120 DUP12 ADD CALLDATALOAD SWAP1 POP SWAP3 SWAP6 SWAP9 SWAP12 SWAP2 SWAP5 SWAP8 SWAP11 POP SWAP3 SWAP6 SWAP9 POP JUMP JUMPDEST PUSH1 0x0 DUP1 PUSH1 0x40 DUP4 DUP6 SUB SLT ISZERO PUSH2 0x2A53 JUMPI PUSH1 0x0 DUP1 REVERT JUMPDEST POP POP DUP1 CALLDATALOAD SWAP3 PUSH1 0x20 SWAP1 SWAP2 ADD CALLDATALOAD SWAP2 POP JUMP JUMPDEST PUSH1 0x0 PUSH1 0x20 DUP3 DUP5 SUB SLT ISZERO PUSH2 0x2A74 JUMPI PUSH1 0x0 DUP1 REVERT JUMPDEST POP CALLDATALOAD SWAP2 SWAP1 POP JUMP JUMPDEST PUSH1 0x0 PUSH1 0x20 DUP3 DUP5 SUB SLT ISZERO PUSH2 0x2A8D JUMPI PUSH1 0x0 DUP1 REVERT JUMPDEST PUSH2 0xDD9 DUP3 PUSH2 0x2835 JUMP JUMPDEST PUSH1 0x0 PUSH1 0x40 DUP3 ADD DUP5 DUP4 MSTORE PUSH1 0x20 PUSH1 0x40 DUP2 DUP6 ADD MSTORE DUP2 DUP6 MLOAD DUP1 DUP5 MSTORE PUSH1 0x60 DUP7 ADD SWAP2 POP DUP3 DUP8 ADD SWAP4 POP PUSH1 0x0 JUMPDEST DUP2 DUP2 LT ISZERO PUSH2 0x2AD7 JUMPI DUP5 MLOAD DUP4 MSTORE SWAP4 DUP4 ADD SWAP4 SWAP2 DUP4 ADD SWAP2 PUSH1 0x1 ADD PUSH2 0x2ABB JUMP JUMPDEST POP SWAP1 SWAP8 SWAP7 POP POP POP POP POP POP POP JUMP JUMPDEST PUSH32 0x4E487B7100000000000000000000000000000000000000000000000000000000 PUSH1 0x0 MSTORE PUSH1 0x12 PUSH1 0x4 MSTORE PUSH1 0x24 PUSH1 0x0 REVERT JUMPDEST PUSH32 0x4E487B7100000000000000000000000000000000000000000000000000000000 PUSH1 0x0 MSTORE PUSH1 0x11 PUSH1 0x4 MSTORE PUSH1 0x24 PUSH1 0x0 REVERT JUMPDEST PUSH1 0x0 DUP3 PUSH2 0x2B51 JUMPI PUSH2 0x2B51 PUSH2 0x2AE4 JUMP JUMPDEST POP DIV SWAP1 JUMP JUMPDEST PUSH1 0x0 DUP3 PUSH2 0x2B65 JUMPI PUSH2 0x2B65 PUSH2 0x2AE4 JUMP JUMPDEST POP MOD SWAP1 JUMP JUMPDEST PUSH32 0x4E487B7100000000000000000000000000000000000000000000000000000000 PUSH1 0x0 MSTORE PUSH1 0x32 PUSH1 0x4 MSTORE PUSH1 0x24 PUSH1 0x0 REVERT JUMPDEST PUSH1 0x0 PUSH32 0xFFFFFFFFFFFFFFFFFFFFFFFFFFFFFFFFFFFFFFFFFFFFFFFFFFFFFFFFFFFFFFFF DUP3 SUB PUSH2 0x2BCA JUMPI PUSH2 0x2BCA PUSH2 0x2B13 JUMP JUMPDEST POP PUSH1 0x1 ADD SWAP1 JUMP JUMPDEST DUP1 DUP3 MUL DUP2 ISZERO DUP3 DUP3 DIV DUP5 EQ OR PUSH2 0x5D0 JUMPI PUSH2 0x5D0 PUSH2 0x2B13 JUMP JUMPDEST PUSH1 0x1 DUP2 DUP2 JUMPDEST DUP1 DUP6 GT ISZERO PUSH2 0x2C41 JUMPI DUP2 PUSH32 0xFFFFFFFFFFFFFFFFFFFFFFFFFFFFFFFFFFFFFFFFFFFFFFFFFFFFFFFFFFFFFFFF DIV DUP3 GT ISZERO PUSH2 0x2C27 JUMPI PUSH2 0x2C27 PUSH2 0x2B13 JUMP JUMPDEST DUP1 DUP6 AND ISZERO PUSH2 0x2C34 JUMPI SWAP2 DUP2 MUL SWAP2 JUMPDEST SWAP4 DUP5 SHR SWAP4 SWAP1 DUP1 MUL SWAP1 PUSH2 0x2BED JUMP JUMPDEST POP SWAP3 POP SWAP3 SWAP1 POP JUMP JUMPDEST PUSH1 0x0 DUP3 PUSH2 0x2C58 JUMPI POP PUSH1 0x1 PUSH2 0x5D0 JUMP JUMPDEST DUP2 PUSH2 0x2C65 JUMPI POP PUSH1 0x0 PUSH2 0x5D0 JUMP JUMPDEST DUP2 PUSH1 0x1 DUP2 EQ PUSH2 0x2C7B JUMPI PUSH1 0x2 DUP2 EQ PUSH2 0x2C85 JUMPI PUSH2 0x2CA1 JUMP JUMPDEST PUSH1 0x1 SWAP2 POP POP PUSH2 0x5D0 JUMP JUMPDEST PUSH1 0xFF DUP5 GT ISZERO PUSH2 0x2C96 JUMPI PUSH2 0x2C96 PUSH2 0x2B13 JUMP JUMPDEST POP POP PUSH1 0x1 DUP3 SHL PUSH2 0x5D0 JUMP JUMPDEST POP PUSH1 0x20 DUP4 LT PUSH2 0x133 DUP4 LT AND PUSH1 0x4E DUP5 LT PUSH1 0xB DUP5 LT AND OR ISZERO PUSH2 0x2CC4 JUMPI POP DUP2 DUP2 EXP PUSH2 0x5D0 JUMP JUMPDEST PUSH2 0x2CCE DUP4 DUP4 PUSH2 0x2BE8 JUMP JUMPDEST DUP1 PUSH32 0xFFFFFFFFFFFFFFFFFFFFFFFFFFFFFFFFFFFFFFFFFFFFFFFFFFFFFFFFFFFFFFFF DIV DUP3 GT ISZERO PUSH2 0x2D00 JUMPI PUSH2 0x2D00 PUSH2 0x2B13 JUMP JUMPDEST MUL SWAP4 SWAP3 POP POP POP JUMP JUMPDEST PUSH1 0x0 PUSH2 0xDD9 DUP4 DUP4 PUSH2 0x2C49 JUMP JUMPDEST DUP1 DUP3 ADD DUP1 DUP3 GT ISZERO PUSH2 0x5D0 JUMPI PUSH2 0x5D0 PUSH2 0x2B13 JUMP JUMPDEST PUSH1 0x0 PUSH1 0x20 DUP3 DUP5 SUB SLT ISZERO PUSH2 0x2D39 JUMPI PUSH1 0x0 DUP1 REVERT JUMPDEST POP MLOAD SWAP2 SWAP1 POP JUMP JUMPDEST DUP2 DUP2 SUB DUP2 DUP2 GT ISZERO PUSH2 0x5D0 JUMPI PUSH2 0x5D0 PUSH2 0x2B13 JUMP JUMPDEST PUSH1 0x0 PUSH1 0x20 DUP3 DUP5 SUB SLT ISZERO PUSH2 0x2D65 JUMPI PUSH1 0x0 DUP1 REVERT JUMPDEST DUP2 MLOAD DUP1 ISZERO ISZERO DUP2 EQ PUSH2 0xDD9 JUMPI PUSH1 0x0 DUP1 REVERT JUMPDEST PUSH1 0x0 JUMPDEST DUP4 DUP2 LT ISZERO PUSH2 0x2D90 JUMPI DUP2 DUP2 ADD MLOAD DUP4 DUP3 ADD MSTORE PUSH1 0x20 ADD PUSH2 0x2D78 JUMP JUMPDEST POP POP PUSH1 0x0 SWAP2 ADD MSTORE JUMP JUMPDEST PUSH1 0x0 DUP3 MLOAD PUSH2 0x2DAB DUP2 DUP5 PUSH1 0x20 DUP8 ADD PUSH2 0x2D75 JUMP JUMPDEST SWAP2 SWAP1 SWAP2 ADD SWAP3 SWAP2 POP POP JUMP JUMPDEST PUSH1 0x20 DUP2 MSTORE PUSH1 0x0 DUP3 MLOAD DUP1 PUSH1 0x20 DUP5 ADD MSTORE PUSH2 0x2DD4 DUP2 PUSH1 0x40 DUP6 ADD PUSH1 0x20 DUP8 ADD PUSH2 0x2D75 JUMP JUMPDEST PUSH1 0x1F ADD PUSH32 0xFFFFFFFFFFFFFFFFFFFFFFFFFFFFFFFFFFFFFFFFFFFFFFFFFFFFFFFFFFFFFFE0 AND SWAP2 SWAP1 SWAP2 ADD PUSH1 0x40 ADD SWAP3 SWAP2 POP POP JUMP INVALID LOG2 PUSH5 0x6970667358 0x22 SLT KECCAK256 0x24 PUSH21 0x87272B05ABC41396AACA944B4AB553836AC521BD1F 0x2F RETURNDATACOPY 0x2C 0xAE 0xBF STOP 0xC5 GT DUP14 PUSH5 0x736F6C6343 STOP ADDMOD GT STOP CALLER "},"methodIdentifiers":{"DOMAIN_CHAIN_ID()":"416f281d","DOMAIN_NAME()":"796f077b","DOMAIN_SEPARATOR()":"3644e515","DOMAIN_TYPEHASH()":"20606b70","DOMAIN_VERSION()":"acb8cc49","FEE_DIVISOR()":"9e93ad8e","ORDER_TYPEHASH()":"f973a209","authorize(address)":"b6a5d7de","authorized(address)":"b9181611","calculateDiscount(uint256,uint256)":"4d2af2b2","calculateProtocolFee(address,uint256)":"52c5f1f5","cancel(uint256[])":"2e340823","check(address,uint256,uint256,address,address,uint256,address,uint256,uint8,bytes32,bytes32)":"b9cb01b0","getChainId()":"3408e470","nonceUsed(address,uint256)":"1647795e","owner()":"8da5cb5b","protocolFee()":"b0e21e8a","protocolFeeLight()":"f4ebc699","protocolFeeWallet()":"cbf7c6c3","rebateMax()":"770fde12","rebateScale()":"db985cd9","renounceOwnership()":"715018a6","revoke()":"b6549f75","setProtocolFee(uint256)":"787dce3d","setProtocolFeeLight(uint256)":"bfd4e557","setProtocolFeeWallet(address)":"7ce78525","setRebateMax(uint256)":"d31eaa83","setRebateScale(uint256)":"e95b771c","setStaking(address)":"8ff39099","staking()":"4cf088d9","swap(address,uint256,uint256,address,address,uint256,address,uint256,uint8,bytes32,bytes32)":"98956069","swapAnySender(address,uint256,uint256,address,address,uint256,address,uint256,uint8,bytes32,bytes32)":"3eb1af24","swapLight(uint256,uint256,address,address,uint256,address,uint256,uint8,bytes32,bytes32)":"46e4480d","transferOwnership(address)":"f2fde38b"}},"storageLayout":{"storage":[{"astId":7,"contract":"contracts/Swap.sol:Swap","label":"_owner","offset":0,"slot":"0","type":"t_address"},{"astId":4314,"contract":"contracts/Swap.sol:Swap","label":"_nonceGroups","offset":0,"slot":"1","type":"t_mapping(t_address,t_mapping(t_uint256,t_uint256))"},{"astId":4319,"contract":"contracts/Swap.sol:Swap","label":"authorized","offset":0,"slot":"2","type":"t_mapping(t_address,t_address)"},{"astId":4321,"contract":"contracts/Swap.sol:Swap","label":"protocolFee","offset":0,"slot":"3","type":"t_uint256"},{"astId":4323,"contract":"contracts/Swap.sol:Swap","label":"protocolFeeLight","offset":0,"slot":"4","type":"t_uint256"},{"astId":4325,"contract":"contracts/Swap.sol:Swap","label":"protocolFeeWallet","offset":0,"slot":"5","type":"t_address"},{"astId":4327,"contract":"contracts/Swap.sol:Swap","label":"rebateScale","offset":0,"slot":"6","type":"t_uint256"},{"astId":4329,"contract":"contracts/Swap.sol:Swap","label":"rebateMax","offset":0,"slot":"7","type":"t_uint256"},{"astId":4331,"contract":"contracts/Swap.sol:Swap","label":"staking","offset":0,"slot":"8","type":"t_address"}],"types":{"t_address":{"encoding":"inplace","label":"address","numberOfBytes":"20"},"t_mapping(t_address,t_address)":{"encoding":"mapping","key":"t_address","label":"mapping(address => address)","numberOfBytes":"32","value":"t_address"},"t_mapping(t_address,t_mapping(t_uint256,t_uint256))":{"encoding":"mapping","key":"t_address","label":"mapping(address => mapping(uint256 => uint256))","numberOfBytes":"32","value":"t_mapping(t_uint256,t_uint256)"},"t_mapping(t_uint256,t_uint256)":{"encoding":"mapping","key":"t_uint256","label":"mapping(uint256 => uint256)","numberOfBytes":"32","value":"t_uint256"},"t_uint256":{"encoding":"inplace","label":"uint256","numberOfBytes":"32"}}}}}}